S010000062737A665F68617A692E73333724
S113000000100020DD0300003B2900003B29000014
S11300103B2900003B2900003B2900003B2900004C
S11300203B2900003B2900003B2900003B2900003C
S11300303B2900003B2900003B2900003B2900002C
S1130040A11900008D0700003B2900003B29000096
S11300503B2900003B2900003B2900003B2900000C
S11300603B2900003B2900003B290000B1070000A8
S11300703B2900003B2900003B2900003B290000EC
S11300803B2900003B2900003B2900003B290000DC
S1130090E50100003B2900003B2900003B2900004A
S11300A03B2900003B2900003B2900003B290000BC
S11300B03B2900003B290000152500003B290000D6
S11300C03B2900003B2900003B2900003B2900009C
S11300D03B2900003B2900003B2900000348044B56
S11300E0834202D0034B03B11847704740110020EC
S11300F040110020000000000548064B1B1AD90FD0
S113010001EBA301491002D0034B03B11847704718
S113011040110020401100200000000010B5064CE2
S1130120237843B9FFF7DAFF044B13B10448AFF364
S113013000800123237010BD9E17002000000000E2
S1130140942F000008B5054B1BB105490548AFF3D2
S11301500080BDE80840FFF7CFBF00BF00000000EB
S113016000140020942F0000A3F5803A704700BFCC
S1130170174B002B08BF134B9D46FFF7F5FF0021DB
S11301808B460F461348144A121A02F0F4FC0E4B25
S1130190002B00D098470D4B002B00D0984700202F
S11301A0002104000D000D48002802D00C48AFF3D4
S11301B0008002F07DFB2000290002F09DFB02F08C
S11301C065FB00BF00000800000000000000000004
S11301D00010002040110020A8170020000000009B
S11301E0000000000122054B05491A60054AD36945
S11301F0DBB20B6041F6F973936470471C14002062
S11302001814002000E0004030B587B06C46214A45
S11302100721536C052043F4005353641E4D0123FE
S1130220042201F041FD01211C4801F0A1F80FCD89
S11302300FC495E8030084E80300194C694620467E
S113024001F0BEFE042201231046002101F02CFD22
S1130250012200231146042001F026FD636D3421A0
S113026043F480736365636D204643F00303636561
S113027002F053FC41F6F9734FF48012A364E36C6B
S113028043F00403E364074BC3F880211A6007B00A
S113029030BD00BF00800C40E02B000000320400A1
S11302A000E0004000E100E0054B1A683AB100228A
S11302B01A60044B04481968C9B202F02EBC704796
S11302C01C1400201814002000E0004010B501F0B8
S11302D0C1FA01210F4801F04BF801220020114618
S11302E001F08CFA01220C4C1146A36A002023F47D
S11302F0803323F0030343F00203A36201F07EFA88
S1130300A36A002023F4801323F00C0343F00803B2
S1130310A36210BDD0433E0000800C4013B50122FF
S1130320164B1A6401F064FD044601A801F038FD7F
S11303300F2C12D99DF80430022B0ED99DF80520FC
S1130340022A01D1042B08D00D4AD2F8C03023F080
S1130350500343F01003C2F8C03001F0A1FE00F0D6
S113036037F802F0DFFB01F085FEFFF7AFFF01F085
S113037071FE02B0BDE8104000F01EB800000C4051
S113038000800C4018B1034B1860002070472520F2
S1130390704700BF2014002010B5054C05492068A3
S11303A000F0BAFB2068BDE81040FFF7EBBF00BFC8
S11303B0201100200010002008B50121034800F09E
S11303C0D7FFBDE8084002F0A1BA00BF00D2040084
S11303D00121014800F0CCBF00D2040008B500F0B0
S11303E0B9F8124B12498B4212D30020114B124917
S11303F08B4218D3FFF7BCFE186850F822405868A7
S113040040F82240013298688242F5D30C33EAE77F
S11304100022F8E71C6844F8220001325C68A2421A
S1130420F8D30833E4E70022F8E700BF9C2F00006C
S1130430A82F0000A82F0000A82F00000048704734
S1130440006CDC02254AD36A03F47053B3F5805F71
S11304503AD0B3F5005F04D0B3F5006F0BD1204B55
S113046000E0204B1B681D4A1068C0F38230013045
S1130470B3FBF0F07047D36803F4E063B3F5407F57
S113048025D008D8B3F5807F0ED0B3F5007F20D0F7
S1130490A3B10023E7E7B3F5806F1CD0B3F5A06FD9
S11304A0114B18BF0023DEE7104B114AD3F8FC10A0
S11304B0104BB1F1985F28BF1346D4E70B4B0E4A9B
S11304C0D3F8FC100D4BF4E74FF40043CBE70C4B8F
S11304D0C9E70C4BC7E70C4BC5E700BF00800C40D5
S11304E02C11002028110020003FAB010081E00FF7
S11304F040B56400C0CF6A00804F120040420F0034
S1130500809FD500C0D8A700406F400108B5FFF711
S113051099FF044B5B6803F00F03D840024B18604B
S113052008BD00BF00800C4024110020014B186856
S1130530704700BF2C110020044B1860044BDB6A89
S11305401B0501D5FFF7E2BF704700BF2C11002047
S113055000800C40014A024B9A6070470000000082
S113056000ED00E0014B1868704700BF281100201F
S113057038B5124B05461B78DBB1E0B102F0A4FAA2
S11305800F4A00231146147C54B914222B60012510
S11305905343CA181574CC5002F09CFA204638BD57
S11305A001330C2B02F11402EDD102F093FA054849
S11305B0F5E70548F3E70548F1E700BF9F1700207A
S11305C084140020048000F0028000F0018000F018
S11305D013B502F079FA114B1C7824B102F07AFABF
S11305E00F4802B010BD01221A7002F073FA2346BC
S11305F021460C4A01330C2B117402F11402F9D177
S11306008022094B684683F80023084B8DF80010BC
S1130610019301F05FFA0020E3E700BF9F17002079
S1130620038000F08414002000E100E000120020A8
S113063008B50B4A127862B10B280CD81421094A68
S113064001FB00231B7C43B1002101F001FA0020CF
S113065008BD0548FCE70548FAE70548F8E700BF88
S11306609F17002084140020028000F0018000F015
S1130670078000F008B50B4A127862B10B280CD839
S11306801421094A01FB00231B7C43B1012101F021
S1130690DFF9002008BD0548FCE70548FAE70548EE
S11306A0F8E700BF9F17002084140020028000F0A8
S11306B0018000F0078000F010B50C4A0C46127857
S11306C06AB10B280DD861B11421094A01FB00233A
S11306D01B7C43B101F0A8F92070002010BD05482F
S11306E0FCE70548FAE70548F8E700BF9F17002034
S11306F084140020028000F0018000F0078000F0E4
S113070070B5012504460B4E04B970BD94FAA4F0EB
S1130710B0FA80F005FA00F306EB001224EA0304B1
S11307205368002BF0D0117B11B191689847EBE727
S11307309847E9E77415002008B50B2001F0CAF8C2
S113074028B14FF40062074BC3F880211A600120DE
S113075001F0C0F820B10222024BC3F880211A60D4
S113076008BD00BF00E100E038B505460C4602F0C4
S1130770ABF90022044B03EB05135C601A73BDE86C
S1130780384002F0A7B900BF74150020074BD3F816
S11307901001D3F81421104020F42A5020F02A002C
S11307A04004400CC3F81C01FFF7AABF00600040DE
S11307B0074BD3F81001D3F81421104020F4AA40B9
S11307C020F055000004000CC3F81C01FFF798BF8B
S11307D00060004038B141B1013AB2F5806F04487D
S11307E038BF00207047034870470148704700BF76
S11307F0037000F0027000F030B51049104B0A7815
S11308002AB9C3E90022C3E9022201220A700C4971
S113081000220C4654F8045B854208D00132042AB5
S1130820F8D1002251F8044B1CB943F822000020EF
S113083030BD0132042AF5D10248F9E7A01700209F
S113084074170020027000F038B5052804460D46E0
S113085005D80A4B33F81030CB40DB0704D440F200
S1130860FE31074802F070F824220123544304F1B6
S11308708044AB4004F5C044636138BD9E2C000045
S1130880F82B000038B5052804460D4605D80A4B58
S113089033F81030CB40DB0704D440F22D41074835
S11308A002F052F824220123544304F18044AB4063
S11308B004F5C044236138BD9E2C0000F82B0000D1
S11308C010B50446FFF784FE002104F10800FFF789
S11308D04FFE014608B1044810BD04F10C00FFF7B7
S11308E047FE0028F8D0F6E70E7000F038B590F80F
S11308F03530022B19D1457F90F82140052D05D8BC
S11309000B4B33F81530E340DB0704D440F2CF310E
S1130910084802F019F824235D43074B2B4404EBE9
S1130920C304A4002068C0B238BD0020FCE700BFA7
S11309309E2C0000F82B00001C60100213B500234D
S11309401D4A52F8044B94F8211081420ED0013311
S1130950042BF6D102B010BD0028FBD19DF807305E
S1130960002BF7D0A068FFF763FEF3E794F8353067
S1130970022BEFD12046FFF7B9FF637E2076022BCE
S1130980E8D194F8323003F0FF02002BE2D1A068E2
S11309900DF107018DF80720FFF78EFE237E1BB1B2
S11309A094F83330002BD7D00023A06884F8333078
S11309B0FFF760FECEE700BF741700202DE9F04179
S11309C004461646FFF706FF88460746E0B900F0DE
S11309D09BFF0546E26A93889BB213B194F83230C8
S11309E0ABB194F83630BBB923681D6915F0020524
S11309F028D0012384F834304644B04520683DD1E2
S1130A0003699E06FCD54DB33846BDE8F081002D40
S1130A10E1D000F0C5FFDDE7012B0ED12268956817
S1130A2015F002050ED084F834304644464520685B
S1130A302BD183681907FCD5E5E740F6A1211948B5
S1130A4001F082FF204601F0F0FF012394F83650B4
S1130A5084F83430002DCFD09D4214D094F8363031
S1130A60C3B1012BD0D123685A6C9207FCD45A6DC0
S1130A7022F002025A6508225A60C5E718F8011BE1
S1130A8002F04BF8B9E70025CFE718F8011B02F094
S1130A903AF8CBE723685A6D22F002025A6508221D
S1130AA0DA60B1E7652C000010B5044680B190F817
S1130AB032302BB9FFF71AFF10B9A068FFF7B8FD61
S1130AC0002094F832300133DBB284F8323010BDA8
S1130AD00048FCE7027000F010B50446A0B190F89D
S1130AE032309BB190F83230012B05D1FFF7FEFE76
S1130AF010B9A068FFF7BEFD002094F83230013B26
S1130B00DBB284F8323010BD0148FCE70148FAE753
S1130B10027000F0057000F0F0B587B06E46044630
S1130B20A84F0D460FCF0FC697E8030086E80300D1
S1130B30002C00F045811DB9A34E304607B0F0BD2E
S1130B4060220021204602F016F800232046A36309
S1130B50FFF752FE06460028EFD12B7C9B4A84F80F
S1130B6035302B6884F836009342236000F0A2806D
S1130B7002F58062934200F0A28002F58062934203
S1130B8000F0A28002F5C052934200F0A28002F568
S1130B9080629342D0D14FF434138D498D4A00269C
S1130BA00527C4E90423D5E906236162A2621680FD
S1130BB05680968084F83060E3621E805E809E805A
S1130BC06B6884F8316002936B8984F83360ADF804
S1130BD01030AB890121ADF80E30AB7B7E488DF827
S1130BE00C30EB7B8DF80D708DF8123000F0C0FBEB
S1130BF001217A4800F0BCFB0121606A00F0B8FBD7
S1130C00694628688DF8006001F0DAF92B7A2968C2
S1130C101A0242F003024A6522686C498A426BD187
S1130C20002B5BD10423E37623770A230B22E3779B
S1130C3084F820206B7C01216377AB7C204684F808
S1130C402130EB7CA3772B7D84F8223001F07EFEEB
S1130C50064600287FF471AF01F036FF2B7C07466F
S1130C60032B3FF469AF022B0DD194F821005C49AA
S1130C70FFF77AFDFFF760FD4FF4007320462383EE
S1130C80A67601F0ECFE4FF0FF33286883642B7CDA
S1130C90032B0CBF0521042101F02CF94FF4406211
S1130CA02B682046DA60FFF70BFE0646384601F053
S1130CB011FF42E74FF440234A494B4A6FE74FF490
S1130CC050234A494A4A6AE74FF4602349494A4A49
S1130CD065E74FF430134949494A60E7013BDBB209
S1130CE0042B61D8474AD25CE2762277464AD25C2A
S1130CF0E277464AD25C9BE745498A4217D15BB109
S1130D00012B0DD0022B0ED0FF210A460B46E277B1
S1130D10E1761A4621778BE71A4602210123F6E78A
S1130D2003213246F3E7032107220623EFE739497B
S1130D308A4210D13BB1012B09D103210422E3766D
S1130D402377E17774E7022303221946F7E7FF23A9
S1130D5019461A46F3E730498A4213D163B1013B7D
S1130D60DBB2022B20D82D4AD25CE27622772C4AC1
S1130D70D25CE2772B4ABDE706230722E776277782
S1130D80E37755E728498A427FF4D6AE8BB1013B1D
S1130D90DBB2022B08D8254AD25CE2762277244AB9
S1130DA0D25CE277234AA5E7FF22E2762277E27754
S1130DB03EE70223E37623770C230D22E37737E71C
S1130DC01D4EBAE6CC2C0000037000F000C00040B9
S1130DD00042040001002D004081040000D2040000
S1130DE03D0900000002040001000C000012040090
S1130DF001000D000022040001000E000032040076
S1130E0001002C00C62C0000C12C0000BC2C0000EA
S1130E1000C4004000C8004000E00040B92C0000BD
S1130E20B62C0000B32C000000E40040B02C0000FD
S1130E30AD2C0000AA2C0000027000F010B5431E77
S1130E40B3F5004F044604D2B4FA84F0C0F11F0095
S1130E5010BD40F69351034801F076FD002CF3D108
S1130E602020F3E7F42C000008B5194B5B6903F468
S1130E70E063B3F5407F16D00DD8B3F5807F20D062
S1130E80B3F5007F18D0F3B141F29C61114801F031
S1130E905BFD00230EE0B3F5C06F16D0B3F5E06F31
S1130EA0F2D10D4B06E000F0A3FF0C4B0C4A1228C4
S1130EB088BF1346184608BD00F09AFF094B0A4A3A
S1130EC0F5E70A4BF6E70A4BF4E70A4BF2E700BFF3
S1130ED000800C40602D0000406F400140420F0034
S1130EE0804F1200C0CF6A0040B56400C0D8A7008C
S1130EF0809FD500003FAB01034B5A6DD20702D44B
S1130F001A6D1042FCD1704700800C4008B500F007
S1130F1077FF4A2805D0792803D0482818D11048EB
S1130F2015E010490E48D1F8E030D1F8E820D1F8A6
S1130F30EC101B0203F47C53C1F3031102F0F00222
S1130F400B431343084AB3F5017F28BF104608BD7D
S1130F50064841F2186101F0F7FC0020F7E700BFF2
S1130F600048E80100FF0FE000366E01602D00002C
S1130F7010B50446FFF7CAFFA04207D2FFF7C6FF29
S1130F80B4EB400F0ED80122012301E000221346E6
S1130F9005498B6705494B6823F4807343EA0223B0
S1130FA04B6010BD0222EFE70000904300800C402C
S1130FB0144B5A686FF0130302F00702134113F045
S1130FC0010F114B09D1984217D8104B104A034412
S1130FD093422CBF0023012308E098420FD80B4B07
S1130FE00B4A0344934234BF0323022305494A684E
S1130FF022F0070213434B6070470423F6E70523EE
S1131000F4E700BF00000C400048E801FFDB0BFFE1
S11310100024F40038B541F67133064CE56BE36304
S1131020FFF70CFAADB2FFF7C3FF0DB10023E36382
S113103038BD00BF00000C4038B541F67133054C93
S1131040E56BE363ADB2FFF7B3FF0DB10023E363D8
S113105038BD00BF00000C4008B5C0F30313013BCA
S11310600C2B5AD8DFE803F00759590D5959141DB0
S11310704759595917002A4B1868C0F38230013078
S113108008BD274B9B6803F00F0301209840F7E746
S1131090234B5B68F7E7224B5B68C3F30023013300
S11310A0F3E7204B984220D00DD81F4B984212D022
S11310B003F58223984213D041F62F411B4801F0D7
S11310C043FC0120DCE71A4B9842F5D1144B9B6E8C
S11310D003F00303D9E7124B9B6EC3F30313D4E766
S11310E00F4B9B6EC3F30323CFE70D4B9B6EC3F3F0
S11310F001330433C9E70F4B984206D003F5043398
S1131100984205D041F64841D8E7054B1B6FDFE70D
S1131110034B1B6FC3F30113B7E741F64F41CDE710
S113112000800C4080002A0080161200602D000010
S113113080062E0090071A0010B5C0F30313013B7C
S11311400C460C2B00F20581DFE813F00D000301BF
S1131150030125000301030144006700D1000301DA
S11311600301030138004C1E072C04D941F67C41CD
S1131170794801F0E9FBFFF74DFF784A136823F43F
S1131180E03343EA84341460FFF7C0F9BDE810404B
S11311900021FFF751BF4B1EB3F5007F04D341F686
S11311A08F416D4801F0D0FB2046FFF747FE6B4AA4
S11311B0936823F00F030343936010BD0846FFF7C1
S11311C03DFE664A0138536823F4807343EA0023E2
S11311D05360F2E74B1EB3F5007F04D341F6A541FB
S11311E05D4801F0B1FBFFF715FFFFF78FF9B0FB86
S11311F0F4F0FFF7BDFE2046FFF720FE574A536880
S113120023F00F0303435360FFF780F90021FFF736
S113121013FFBDE81040FFF7ABBE514B98424FD0CF
S11312200DD8504B984220D003F58223984232D0F7
S113123041F6FE41BDE81040474801F085BB4A4BEA
S11312409842F5D1082904D941F6F041424801F009
S11312507BFB0420FFF750FE2046FFF7EFFD3F4ADB
S1131260936E23F00303034313E0B1F5004F04D955
S113127041F6C341384801F067FB0420FFF73CFE08
S11312802046FFF7DBFD354A936E23F0F00343EA73
S11312900013936691E7B1F5004F04D941F6D141AB
S11312A02D4801F051FB0420FFF726FE2046FFF7EE
S11312B0C5FD2A4A936E23F4706343EA0023E8E7EA
S11312C0A1F11003702B04D94FF4E751224801F027
S11312D03BFB0420FFF710FE2046FFF7AFFD1F4A3B
S11312E00438936E23F4405343EA0033D1E71F4B91
S11312F0984206D003F50433984216D041F624519F
S113130098E7082904D941F60751134801F01CFB5A
S11313104020FFF7F1FD2046FFF790FD0F4A136FC1
S113132023F003030343136747E7082904D941F66D
S11313301651094801F008FB4020FFF7DDFD204667
S1131340FFF77CFD054A136F23F0300343EA0013D3
S1131350E9E741F62A516DE7602D000000800C405A
S113136080002A008016120080062E0090071A00C2
S113137070B5C0F30323013B04460E46092B16D86F
S1131380DFE803F0302C051515272015151CFFF791
S1131390BDF8FFF7EDFD154DC4F3043405F14245E6
S11313A005F5801504EBC504A400266070BD41F664
S11313B0B051BDE870400E4801F0C6BA0D4DC0F3FF
S11313C00434EBE7C0F3043410200B4DFFF794FD15
S11313D0E4E7C0F30434094D0120F7E7084DC0F3F6
S11313E00434DBE7074DC0F30434D7E740800C40F6
S11313F0602D000078800C4060800C4058800C40C8
S113140044800C4008800C4008B500F00F000138FF
S113141006284CD8DFE800F00414254B4B333B007E
S1131420294BDB6A03F47053B3F5805F4AD0B3F5FC
S1131430005F45D0B3F5006F0CBF0420052008BD44
S1131440214B986A00F003000228F8D0032835D015
S1131450012837D09B6A13F4803F0CBF01200A2077
S1131460EDE7194A936A03F00C03082B28D00C2BE0
S113147024D0042B26D0936A13F4801FEDE7124B7B
S11314801B6813F0805F0CBF07200920D7E70E4BC1
S1131490DB6A03F46033B3F5803F11D0B3F5003F4A
S11314A010D0B3F5004F0CBF09200120C7E707484F
S11314B042F2013101F048FA0020C0E70620BEE7FD
S11314C00220BCE70320BAE700800C40602D000036
S11314D010B52B4B0446984223D02A4B984213D084
S11314E041F61311284801F02FFA2046FFF78CFF2C
S11314F0044641F64211244801F026FA032C37D859
S1131500DFE804F03B1C2024FFF77EFF1F4A936AA8
S1131510C3F38103013B022B27D8DFE803F00F1349
S11315201700FFF771FF194A936A03F00303013BA5
S1131530022B12D8DFE803F002060A00BDE81040CF
S113154001F0FCB9BDE81040FFF70CB8FEF7DEFF70
S11315500F4B9B6F0133D84010BD936A1022D340C8
S11315600BD0BDE8104001F0ECB9936A1422F6E701
S113157041F66D11044801F0E7F90020ECE700BFE3
S113158002001E0003002000602D000000800C40BB
S11315900000904338B500F47813B3F5E01F054616
S11315A000F087802ED8B3F5801F00F0918018D802
S11315B0B3F5802F50D006D87BB1B3F5003F53D09C
S11315C04FF4F7517FE0B3F5602FF9D15048FFF79E
S11315D01BFF07287CD0092873D1BDE83840FEF7EB
S11315E031BFB3F5B01F43D0B3F5D01F5BD0B3F513
S11315F0901FE5D14748FFF76BFF474B9B6EC3F342
S113160003132FE0B3F5281F3AD00DD8B3F5001F0C
S113161047D0B3F5181F5FD0B3F5F01FD0D13D48C4
S1131620BDE83840FFF754BFB3F5381F31D0B3F5E8
S1131630781F63D0B3F5301FC2D13648FFF748FF97
S1131640354A936EC3F30133D840D36F03F00703D5
S11316500133B0FBF3F038BDFEF7F4FE2E4B9B686C
S113166003F00F03D840F6E7BDE83840FEF74EBF5D
S11316702848FFF72DFF284B9B6EC3F30323F1E7A4
S11316802448FFF725FF244B9B6EC3F30133043337
S1131690E8E72048FFF71CFF1F4B9B6E03F0030392
S11316A0E0E71E48BCE71D48FFF712FF1A4B1B6F0B
S11316B0F4E71A48FFF70CFF174B1B6FC3F3011332
S11316C0D0E741F2D661164801F03EF90020C2E7A6
S11316D0BDE83840FFF7C8BB1248FFF795FE032862
S11316E008D009283FF479AF0228EFD1BDE838408B
S11316F0FEF738BFBDE8384001F020B9FEF706FF19
S113170004462846FFF7A8FCB4FBF0F0A3E700BFAB
S113171006000E0002001E0000800C4003002000A2
S1131720602D00000723260010B504461120FFF7A2
S11317306BFE042804D142F673210C4801F004F92D
S113174008230B4A13621368E17823F4D16323F06E
S113175007030B43617843EA4123217843EA810379
S1131760A17843EAC113136010BD00BF602D0000CF
S113177000800C4070B505461120FFF745FE022895
S113178004D142F62B31144801F0DEF84FF4007313
S1131790124E3362AC786B78E40244EA83442B78CB
S11317A0C3F3400344EA433401F087F933685C40EF
S11317B024F07F4424F4730424F4474424F0FF0405
S11317C05C40346001F07DF92B78054A03F0010395
S11317D0C2F8A03470BD00BF602D000000800C4032
S11317E000008C43014B1880704700BF3211002069
S11317F0014B1880704700BF3011002030B404281A
S11318000BD80E4B1C5C0E4B33F810500D4B33F8B9
S113181010000D4B39B918620DE042F6F93130BCB5
S11318200A4801F091B81D622AB1094B23449B0078
S11318301A68002AFCD030BC704700BFA42D0000F9
S11318409A2D0000902D000000800C40602D0000B7
S11318506001E41008B5FFF759FB0130FFF788FB7E
S1131860FEF764FE104A114B984213684FF00200D1
S113187096BF23F0600343F0600343F0200313603A
S113188001221146FFF7BAFFFFF7C4FB0222064B01
S11318905A62FEF73BFEFFF76BFBFEF737FEBDE82F
S11318A008400021FFF7C8BB00800C400048E80155
S11318B00028ABBF00F16040054B00F5614000F02B
S11318C00F00ACBF90F80003185C4009704700BFDC
S11318D014ED00E010B5C3B2262B044604D94FF42E
S11318E04D71074801F030F8064B620953F82200A5
S11318F004F01F04E040C04300F0010010BD00BF2D
S1131900A92D000000E100E010B500F10C03DBB2EA
S1131910322B044604D940F2C221144801F014F8D1
S1131920EFF31083DB0702D50122104610BD2046D9
S1131930FFF7D0FF02460028F6D12046FFF7B8FF94
S11319400146EFF3118313B1B0EB531FECD2084BF4
S11319505B68C3F30803002BE7D0103B58B2FFF7D2
S1131960A7FF88428CBF00220122DEE7A92D0000D8
S113197000ED00E070B51F2905460C46164603D954
S11319809121064800F0E0FF05F1424000F5801087
S113199004EBC004A400266070BD00BFD92D000074
S11319A02DE9F84F1D4B1D68DB681D4004D54FF42D
S11319B089711B4800F0C8FF0227DFF86890DFF840
S11319C05CB0D9F8388005EA080600244FF0010A13
S11319D019E0F30715D5D9F808300AFA04F2CBF860
S11319E0082003EB0413DA685AB1117A81F0010379
S11319F0137213682BB1003918BF012120465268B5
S1131A00984776080134002EE3D1012F25EA080611
S1131A1001D00127D9E7BDE8F88F00BF00300C40A2
S1131A20452E000000200C4010B50B28044604D9B4
S1131A3040F2A931044800F087FF044B986AE04063
S1131A4000F0010010BD00BF452E000000200C4036
S1131A5038B50B2804460D4604D940F2BE31064879
S1131A6000F072FF0122214625B10448BDE8384048
S1131A70FFF780BF0248F9E7452E000024200C4000
S1131A8020200C4001200F4BC3F88000BFF34F8F80
S1131A90BFF36F8F40F6FF7100230B4A5360D1618F
S1131AA05162D1625163D163D06408490848CB6064
S1131AB08860184603F5886101330C2B42F8210035
S1131AC0F8D1704700E100E000200C4000300C40E9
S1131AD0FF0F008010B5044620B940F2DA311148F6
S1131AE000F032FF237923B14FF478710D4800F0F0
S1131AF02BFF01210C48FFF73BFCFFF7C3FF01223A
S1131B000A4BC3F880211A604FF00041084B094A80
S1131B10D9606368936023785B0143F001035360E9
S1131B2010BD00BF452E00000003020000E100E0EC
S1131B3000300C4000200C4010B50479837809492A
S1131B4023430478CA6A43EA0443C478407822F4FD
S1131B50803243EA440322F01F0243EA0013134392
S1131B60CB6210BD00600C4038B5052804460D4614
S1131B7005D80A4B33F81030CB40DB0704D440F2CD
S1131B802D41074800F0E0FE24220123544304F1D0
S1131B908044AB4004F5C044236138BDA42E00004A
S1131BA0F82B000038B5052804460D4605D80A4B25
S1131BB033F81030CB40DB0704D440F2FE31074841
S1131BC000F0C2FE24220123544304F18044AB40BC
S1131BD004F5C044636138BDA42E0000F82B000056
S1131BE02DE9F84305280646154698469DF82090A9
S1131BF006D8254B33F8103023FA01F1CB0703D470
S1131C00BF21224800F0A0FE0127214C072D2C44BF
S1131C104FF0070107FA05F74FEA84040FD81D4B6C
S1131C201D48234406FA03F2994000F056FF1B4B6B
S1131C3044F8808CC4F80090C3F81C711DE0A5F131
S1131C4008039B00164806FA03F2994000F045FF8A
S1131C501F2DECD99121134800F076FE91211148F3
S1131C6044F8808C00F070FE0C4BC4F80090912175
S1131C700C48C3F81C7100F067FE9DF82430C4F8CA
S1131C808030BDE8F88300BFA42E0000742E00004D
S1131C906008831080DEF3BD0061004000600040F6
S1131CA004610040D92D0000F8B5052805460C460E
S1131CB016461F4605D81C4B33F81030CB40DB07C3
S1131CC004D44FF4B071194800F03EFE26B1214609
S1131CD02846C7B1FFF748FF2423072C4FF00F0114
S1131CE005FB03F312D8A00006FA00F28140104865
S1131CF0184400F0F2FEAEB92146284677B1BDE89B
S1131D00F840FFF731BFFFF74DFFE5E7A4F1080006
S1131D10800006FA00F281400648E9E7BDE8F84091
S1131D20FFF740BFF8BD00BFA42E0000742E0000D2
S1131D30046000400860004038B5012805460C46A0
S1131D400CD9A4210C4800F0FFFDB4F1807F12D31C
S1131D50BDE83840A921084800F0F6BDB1F1807F04
S1131D6003D3A921044800F0EFFD044B044A012DDC
S1131D7018BF13461C6038BDB02E00000C0008408C
S1131D8008000840427803780AB143F002038278DD
S1131D900AB143F00403014A13607047000008408D
S1131DA010B5044618B957210F4800F0CDFD0F4A6D
S1131DB0D2F8E430D2F8E0109B0003F03C03C1F306
S1131DC081110B43A370D2F8E03003F03F0363703A
S1131DD0D2F8E830D2F8EC2003F0F003C2F3031297
S1131DE01343237010BD00BFDF2E000000FF0FE07F
S1131DF0024BD3F8FC00000E704700BF0081E00FD7
S1131E00024BD3F8FC00C0F3074070470081E00F99
S1131E10F8B507460C461D4616464AB94FF4A1715B
S1131E20314800F091FD24B1402D08D1062327E06C
S1131E3019B92E48FFF7AEFB0446402D42D0402D81
S1131E4009D87DB1202D17D040F28911BDE8F840A2
S1131E50254800F079BD602DF6D1B6EB940F3CD83F
S1131E6004230DE0B6EB141F04D94FF4BA711E48D5
S1131E7000F06AFD102303E0B6EBD40F1CD808234E
S1131E805E43730803EB8403B3FBF6F3184E043B81
S1131E90B6EB831F4FEA831404D24FF4D071124877
S1131EA000F052FD3B68344023F060033B603B6824
S1131EB01D433D607C61F8BD40F279110A4800F091
S1131EC043FDDCE70623B4FBF3F3B342AED24FF495
S1131ED0BF71054800F038FDA8E740F283110248BD
S1131EE000F032FDBCE700BF112F00004081040068
S1131EF0C0FF1F0038B5104B044698420D4614D05D
S1131F0003F58063984210D003F5806398420CD0A7
S1131F1003F5C053984208D003F58063984204D077
S1131F204FF43371054800F00FFDEB435B0003F001
S1131F300A03E360E56038BD00C00040112F0000D3
S1131F4010B51C4B0446984214D003F580639842A4
S1131F5010D003F5806398420CD003F5C053984227
S1131F6008D003F58063984204D040F242411248FD
S1131F7000F0EAFC40F6AA6341F20502E3600023A4
S1131F802360626041F6F972A3606361E364A26452
S1131F90084A6365944202D12365A36510BDA36515
S1131FA0064B9C4203D003F580639C42F6D1002388
S1131FB0E365F3E700C00040112F000000C40040B7
S1131FC038B5224B044698420D4614D003F580637D
S1131FD0984210D003F5806398420CD003F5C053A7
S1131FE0984208D003F58063984204D040F2FD2162
S1131FF0174800F0A9FC2046FFF7A2FFAB7C1BB1F9
S1132000236843F080432360EB7C1BB12B7D43F0BA
S11320101003A3652A8A6B7B20461343EA89134382
S113202063602B7BD5E90112FFF7F2FE6B7D1BB1D8
S1132030236843F480332360AB7D1BB1236843F4EE
S1132040004323602B78E36038BD00BF00C000402C
S1132050112F000007B5064B18681B7900906846DD
S11320608DF80430FFF768FD002003B05DF804FB31
S1132070422F000007B5084B186801900748FEF787
S11320805BFA01A8FFF750FB3220FFF7B1FB0020F9
S113209003B05DF804FB00BF472F0000006CDC02B6
S11320A010B56FF00403A0210A480B4C13F0800F05
S11320B003F1010207D12344272A83F800131346AE
S11320C0F4D1002010BD03F00F03043B0344197640
S11320D01346EBE700ED00E000E100E030B50E4C04
S11320E0416123688BB9206083600DE0891A9A6886
S11320F01D4641616AB113465A698A42F6D935B11F
S1132100A860521A83605A6130BD0025F4E720604C
S1132110F7E798608260F7E78C17002038B500F085
S113212075F90025084B094C1A682368C31A2AB1AB
S113213023B15169994203D3C91A5161206038BD52
S113214055615B1A9268F2E78C170020881700200B
S113215038B5134D2B685B6993B1124A0220146899
S11321601C4400F065F9204600F090F900230E4964
S11321702A680B70D088800709D501230B7038BDFD
S1132180022000F055F9022000F0B6F9EEE792685B
S1132190002AF4D050690344012BEBD9EFE700BFC8
S11321A08C17002088170020A217002000220C4959
S11321B00B687BB183420AD183687AB193608368E8
S11321C01BB15A6941690A445A61002070471A4692
S11321D09B68EEE70028EFD0022070470B60EEE723
S11321E08C17002070B500F06FFC144E054634784F
S11321F0FCB9134B1C60134B1C60134B1C8000F088
S1132200D3F8012000F014F900F07EF90F4B0246D8
S1132210186020B9284600F05DFC232070BD2346D9
S113222040F2E7310A4800F0B7F90A4B186001237D
S11322303370284600F04EFC0020EFE7A31700207F
S11322408C170020881700209C170020901700206E
S113225018FCFFFF841700202DE9F047C20704464D
S11322600BD54D4A138801339BB21380FFF756FFF9
S11322704A4B1B680BB1FFF76BFFA30740F18A8041
S113228000F022FC4FF0000905464E46FFF746FFDA
S1132290C846424F3C680CB163698BB10022404B85
S11322A0012E1A7003D119F0020F18BF1E70002CF2
S11322B06CD0FFF74DFF2846BDE8F04700F00ABC9C
S11322C023465A693AB91A792179914288BF1C4642
S11322D09B68002BF5D1284600F0FCFB2569DDB195
S11322E000F094F8A269A0EB02094FEAE9734D45A6
S11322F078EB030311DA23691344A361E368B4F8A8
S11323000690013613B120462168984700F0DCFBA3
S11323100546FFF703FFBDE7A94600F0D5FB82465B
S11323202046FFF743FF504600F0D4FB2369002BFF
S1132330E4D0B5EB09054FEAE97363EB4303002BE3
S113234004DA40F22B51174800F0FEFAA38B33B1A4
S1132350E28B13449BB2B3F57A7F0FD2E38300F090
S1132360B3FB814629462046FFF7B8FEA3692269DC
S113237048461344A36100F0ADFBBFE7A3F57A73AD
S1132380E383A369013D013BA361E8E7022000F078
S113239067F890E7BDE8F0879C1700208C170020B1
S11323A0A11700204B2F000013B5144B144C1A88AE
S11323B09B7820460121ADF804208DF80630FEF705
S11323C0BBFE01212046FEF7D3FF0024012301A810
S11323D08DF804308DF80640FFF7D4FC094BDA6918
S11323E022F00702DA6107229A614FF080425C60B2
S11323F0054BC3F880211A6002B010BD8E2F000077
S1132400801612000000084000E100E0064A074B75
S113241050681B781169DBB2C90744BF50680133A7
S113242040EA0360704700BF00000840A417002082
S113243010F0020F084A00F0010308D00749087899
S113244018B1042090610020087043F00403D1699E
S11324500B43D361704700BF0000084034110020D3
S1132460820744BF0121074A00F0010348BF1170ED
S1132470054948BF43F00403CA6922EA0303CB6158
S1132480704700BF341100200000084038B50446EE
S113249000F013FB0546FFF7B9FF154A034612691E
S11324A012F0040F134A06D11168091A032902D83D
S11324B01168814213D1E11A022998BFDC1C013C46
S11324C014601168CB1AB3F1807F0DD2116801201A
S11324D021F07F41FFF730FC0220FFF7A9FF2846D7
S11324E0BDE8384000F0EDBA0220FFF7B9FFF6E787
S11324F00000084094170020830742BF0422014BC8
S11325005A617047000008400148FFF743B800BF14
S113251080161200F8B500F0D7FA1C4B06461D6968
S113252015F0010405F0040705F0050506D1FFB90F
S11325309D613046BDE8F84000F0CCBA144A1478E6
S1132540137824060133DBB21370124B1968137825
S1132550A1EB0361B1F1807F05D20120FFF7ECFB11
S11325600220FFF765FF57B104F180735C425C41C0
S1132570064B44F002009D61FFF76EFED9E7034B62
S1132580B4F17F4F9D61D4D10120F5E700000840EC
S1132590A41700209417002053B94AB9002908BF92
S11325A000281CBF4FF0FF314FF0FF3000F06CB932
S11325B0ADF1080C6DE904CE00F006F8DDF804E096
S11325C0DDE9022304B070472DE9F047089D0C466D
S11325D0002B4ED196468E458446B2FA82F262D9D9
S11325E04AB1C2F12003914020FA03F30EFA02FE2D
S11325F0194300FA02FC4FEA1E47B1FBF7F407FB4C
S113260014111FFA8EF64FEA1C4343EA014304FBFC
S113261006F199420AD91EEB030304F1FF3080F05E
S11326201181994240F20E81023C7344591AB1FB64
S1132630F7F007FB101100FB06F61FFA8CF343EAD0
S113264001439E420AD91EEB030300F1FF3180F0DF
S1132650FB809E4240F2F8807344023800219B1BA9
S113266040EA04401DB1D3400022C5E90032BDE870
S1132670F0878B4205D90DB1C5E900010021084658
S1132680F5E7B3FA83F1002946D1A34202D390427D
S1132690C0F0F380861A64EB03030120002DE6D01A
S11326A0C5E90063E3E7002A40F09080A1EB0E0443
S11326B001214FEA1E471FFA8EF6B4FBF7F007FB21
S11326C010444FEA1C4343EA044306FB00F49C42D3
S11326D008D91EEB030300F1FF3802D29C4200F23A
S11326E0C98040461C1B1FFA8CF3B4FBF7FC07FBA4
S11326F01C4406FB0CF643EA04439E4208D91EEB35
S113270003030CF1FF3402D29E4200F2AF80A446D0
S11327109B1B4CEA0040A5E7C1F120068B4022FA3E
S113272006FC4CEA030C24FA06F74FEA1C49B7FBF3
S1132730F9F81FFA8CFE09FB187720FA06F38C408F
S113274000FA01FA08FB0EF01C43230C43EA07438A
S1132750984202FA01F20AD91CEB030308F1FF378D
S113276080F0828098427FD9A8F1020863441F1A3E
S1132770B7FBF9F309FB137703FB0EFEA4B244EA9B
S11327800744A64508D91CEB040403F1FF3067D2C3
S1132790A64565D9023B644443EA0840A0FB028392
S11327A0A4EB0E049C42C6461F4651D34ED0002DC6
S11327B067D0BAEB0E0364EB070424FA01F2CB40B2
S11327C0B4401C430021C5E9004250E70EFA02FE62
S11327D0C2F12003D9404FEA1E4720FA03F300FA5E
S11327E002FCB1FBF7F007FB101194401C431FFAE5
S11327F08EF6230C43EA014300FB06F1994208D903
S11328001EEB030300F1FF382CD299422AD9023877
S113281073445B1AB3FBF7F107FB1133A4B244EA28
S1132820034401FB06F3A34208D91EEB040401F19F
S1132830FF3813D2A34211D902397444E41A41EA8D
S113284000413AE70446F1E6084607E7C245AED23E
S1132850B8EB020E63EB0C070138A8E74146EDE73D
S1132860034699E74046D4E7B84680E77344ACF1A1
S1132870020C4DE70238734434E706462346084603
S11328800CE72946F3E600BF704700BF08B5064BC6
S1132890044613B10021AFF30080044B1B6803B15D
S11328A09847204600F051F80000000098170020D7
S11328B070B500260C4D0D4C641BA410A64209D122
S11328C000F06EF900260A4D0A4C641BA410A642BF
S11328D005D170BD55F8043B98470136EEE755F82D
S11328E0043B98470136F2E73811002038110020E4
S11328F0381100203C11002008B500F024F9FDF740
S113290083FC00F02DF9FDF7CFFCFAE7704708B51A
S1132910FDF712FFBDE80840FDF73EBD08B500F025
S11329200AF8BDE80840FFF75DBC70477047704780
S11329307047704770470F207047FEE74FF4004020
S113294070474FF47A707047FEE7FEE737B50446E8
S11329500D46C07EE17F002D39D001230422FFF70C
S1132960A3F90123022294F82010207FFFF79CF999
S113297094F83530022B19D10023012294F8211048
S1132980607FFFF791F90023042294F82210A07FBE
S1132990FFF78AF9012394F821200193009311464B
S11329A0607FFFF71DF9002003B030BD032BFAD17F
S11329B00023012294F82110607FFFF775F90023AA
S11329C0042294F82210A07FFFF76EF9EBE72B4660
S11329D02A46FFF769F92B462A4694F82010207FEF
S11329E0FFF762F994F83530022B12D12B462A46B0
S11329F094F82110607FFFF757F92B462A4694F884
S1132A002210A07FFFF750F994F8212001230195AB
S1132A10C4E7032BC7D12B462A4694F82110607FC4
S1132A20FFF742F92B462A46CBE790F8363053B9E4
S1132A3004220368DA601A699007FCD55A6D42F0E3
S1132A4002025A657047012BFCD103685A6C910746
S1132A50FCD404225A609A689207FCD5EEE737B595
S1132A6090F835500446022D12D1437E94F822107A
S1132A70807F23B9FDF7E8FE002003B030BD012BB1
S1132A8002D1FDF7FFFEF7E7237E002BF9D1F1E732
S1132A90012DF1D1037E73B911238DF80730FEF7B0
S1132AA003F82A4620460DF10701FDF787FF20466B
S1132AB0FEF712F8E0E71323EFE7EFF3108072B6A6
S1132AC0704700B962B67047EFF31180602383F357
S1132AD01188704780F31188704770B50546144615
S1132AE00E46FFF7EAFF2B685C4034405C402C60E4
S1132AF0BDE87040FFF7E5BF036CDB0702D4436C0D
S1132B001942FCD1704708B50A468368DB06FCD538
S1132B104021FFF7F1FF826208BD03695B06FCD523
S1132B204163704713B54FF44073002401A8ADF816
S1132B3004308DF80640FEF71DFE3220FEF752FEEB
S1132B40204602B010BD08B5FDF7E8FBFFF7DFFE35
S1132B50FFF7E4FEFFF7E9FEBDE80840FFF7E6BE35
S1132B6008B5FFF7E4FEFFF7E3FEFFF7E2FEBDE87A
S1132B700840FFF7DFBE03460244934200D170478A
S1132B8003F8011BF9E7000000000000000000004A
S1132B900000000000000000000000000000000031
S1132BA0F8B500BFF8BC08BC9E467047F8B500BF36
S1132BB0F8BC08BC9E4670470000000000000000FE
S1132BC00000000000000000000000000000000001
S1132BD000000000000000000000000000000000F1
S1132BE0050000000000000000C201000005000014
S1132BF00010000000000000433A5C5573657273D6
S1132C005C64627572615C4F6E6544726976655C82
S1132C10446F63756D656E74735C42737A66206885
S1132C20617A695C62737A665F68617A695C62730F
S1132C307A665F68617A695C6765636B6F5F73640A
S1132C406B5F342E342E345C706C6174666F726DFD
S1132C505C656D6C69625C696E632F656D5F67703E
S1132C60696F2E68002E2E2F6765636B6F5F736428
S1132C706B5F342E342E342F706C6174666F726DFA
S1132C802F656D6472762F756172746472762F731A
S1132C9072632F756172746472762E630000FFFF95
S1132CA0FFFFFFFFFFFFFFFFFF1F0B0A030A0902DD
S1132CB005010401040F00030E040002060A0C08B7
S1132CC001070B0D070004020401020005000000C7
S1132CD00000000000C20100000500000010000018
S1132CE00000000005000000000000008025000036
S1132CF000000000433A5C55736572735C6462754E
S1132D0072615C4F6E6544726976655C446F63758D
S1132D106D656E74735C42737A662068617A695C6F
S1132D2062737A665F68617A695C62737A665F6807
S1132D30617A695C6765636B6F5F73646B5F342E84
S1132D40342E345C706C6174666F726D5C656D6C8E
S1132D5069625C696E632F656D5F636D752E6800D3
S1132D602E2E2F6765636B6F5F73646B5F342E3435
S1132D702E342F706C6174666F726D2F656D6C6983
S1132D80622F7372632F656D5F636D752E63000030
S1132D90000280000800020020000001400004003E
S1132DA00100100009070301052E2E2F6765636BD0
S1132DB06F5F73646B5F342E342E342F706C6174C8
S1132DC0666F726D2F656D6C69622F7372632F6508
S1132DD06D5F636F72652E6300433A5C5573657271
S1132DE0735C64627572615C4F6E6544726976658A
S1132DF05C446F63756D656E74735C42737A6620B0
S1132E0068617A695C62737A665F68617A695C6238
S1132E10737A665F68617A695C6765636B6F5F7319
S1132E20646B5F342E342E345C706C6174666F7224
S1132E306D5C656D6C69625C696E632F656D5F6264
S1132E4075732E68002E2E2F6765636B6F5F736436
S1132E506B5F342E342E342F706C6174666F726D18
S1132E602F656D6C69622F7372632F656D5F646D7E
S1132E70612E63002E2E2F6765636B6F5F73646B27
S1132E805F342E342E342F706C6174666F726D2F24
S1132E90656D6C69622F7372632F656D5F6770690E
S1132EA06F2E6300FFFFFFFFFFFFFFFFFFFFFF1F0A
S1132EB02E2E2F6765636B6F5F73646B5F342E34E4
S1132EC02E342F706C6174666F726D2F656D6C6932
S1132ED0622F7372632F656D5F7274632E63002EAD
S1132EE02E2F6765636B6F5F73646B5F342E342EB4
S1132EF0342F706C6174666F726D2F656D6C6962CE
S1132F002F7372632F656D5F73797374656D2E63B0
S1132F10002E2E2F6765636B6F5F73646B5F342EB7
S1132F20342E342F706C6174666F726D2F656D6C06
S1132F3069622F7372632F656D5F75736172742E8E
S1132F4063000000000101030300002E2E2F6765BB
S1132F50636B6F5F73646B5F342E342E342F706C2D
S1132F606174666F726D2F736572766963652F7312
S1132F706C65657074696D65722F7372632F736C01
S1132F805F736C65657074696D65722E6300010012
S1072F900100000038
S10B2F94D4D1FF7F010000000D
S10F2F9CA82F00000010002050000000CE
S1132FA800E0004000C201000100001000006000C1
S1132FB80000000000000000A010002020100020E5
S1132FC800000000000006000000000000000000EF
S1132FD800000000000000000000000000000000E5
S1132FE800000000000000000000000000000000D5
S1132FF800000000000000000000000000000000C5
S113300800000000000000000000000000000000B4
S113301800000000000000000000000000000000A4
S11330280000000000000000000000000000000094
S11330380000000000000000000000000000000084
S1133048000000000000060000000000000000006E
S11330580000000000000000000000000000000064
S11330680000000000000000000000000000000054
S11330780000000000000000000000000000000044
S11330880000000000000000000000000000000034
S11330980000000000000000000000000000000024
S11330A80000000000000000000000000000000014
S11330B80000000000000000000000000000000004
S11330C824140020809FD50000800000006CDC02DE
S11330D8FFFFFFFF01000000450100001D01000083
S90303DD1C
