S00C0000736E616B652E733337D6
S113000000100020B5050000DF1B0000DF1B00000E
S1130010DF1B0000DF1B0000DF1B0000DF1B0000F4
S1130020DF1B0000DF1B0000DF1B0000DF1B0000E4
S1130030DF1B0000DF1B0000DF1B0000DF1B0000D4
S1130040DF1B0000DF1B0000DF1B0000DF1B0000C4
S1130050DF1B0000DF1B0000DF1B0000DF1B0000B4
S1130060DF1B0000DF1B0000DF1B0000DF1B0000A4
S1130070DF1B0000DF1B0000DF1B0000DF1B000094
S1130080DF1B0000DF1B0000DF1B0000DF1B000084
S1130090D1020000DF1B0000DF1B0000DF1B00009B
S11300A0DF1B0000DF1B0000DF1B0000DF1B000064
S11300B0DF1B0000DF1B0000DF1B0000DF1B000054
S11300C0DF1B0000DF1B0000DF1B0000DF1B000044
S11300D0DF1B0000DF1B0000DF1B00000348044B94
S11300E0834202D0034B03B118477047DC10002051
S11300F0DC100020000000000548064B1B1AD90F35
S113010001EBA301491002D0034B03B11847704718
S1130110DC100020DC1000200000000010B5064CAC
S1130120237843B9FFF7DAFF044B13B10448AFF364
S113013000800123237010BD0E1100200000000078
S1130140401F000008B5054B1BB105490548AFF336
S11301500080BDE80840FFF7CFBF00BF00000000EB
S1130160DC100020401F0000A3F5803A704700BF58
S1130170174B002B08BF134B9D46FFF7F5FF0021DB
S11301808B460F461348144A121A01F075FD0E4BA4
S1130190002B00D098470D4B002B00D0984700202F
S11301A0002104000D000D48002802D00C48AFF3D4
S11301B0008001F0CDFC2000290001F0F6FC01F0E4
S11301C0B5FC00BF000008000000000000000000B3
S11301D000100020DC10002010110020000000009E
S11301E0000000001348038843F48E6343F00103C6
S11301F00380438843F48E6343F00703438083887A
S113020043F48D6343F005038380C38843F40853A8
S113021043F00903C380037A23F03F0343F03F0311
S11302200372438943F42D7343F00203438100F0C6
S113023027B900BF0011002030B587B06C461F4AB3
S11302400721536C052043F4005353641C4D0123D0
S1130250042201F001F901211A4800F00FFD0FCD2D
S11302600FC495E8030084E80300174C6946204650
S113027001F0CEFB042201231046002101F0ECF82A
S1130280012200231146042001F0E6F8636D4FF4C7
S1130290801243F480736365636D43F00303636505
S11302A041F6F973A364E36C43F00403E364074B7E
S11302B0C3F880211A6007B030BD00BF00800C4035
S11302C0E01C00000032040000E0004000E100E017
S11302D00122054B05491A60054AD369DBB20B605C
S11302E041F6F97393647047F8100020F41000206D
S11302F000E00040054B1A683AB100221A60044B32
S113030004481968C9B201F089BC7047F81000208C
S1130310F410002000E00040024A536E0342FCD176
S1130320704700BF00A0084010B50022284C1046BA
S1130330214601F0C9F921460022012001F0C4F947
S113034021460022022001F0BFF9214600220320A9
S113035001F0BAF921460022042001F0B5F9214642
S11303600022052001F0B0F921460022062001F008
S1130370ABF921460022072001F0A6F90022FF2153
S1130380104601F0FDF90022FF21012001F0F8F9E7
S11303900022FF21022001F0F3F90022FF210320B3
S11303A001F0EEF90022FF21042001F0E9F9002216
S11303B0FF21052001F0E4F90022FF21062001F0CD
S11303C0DFF9BDE810400022FF21072001F0D8B971
S11303D000F00FF010B501210446224800F04EFC55
S11303E00321214800F004FF4021204800F02AFBAB
S11303F0012000F045FE01211D4800F03FFC1D4B8B
S11304001D489A6A00229A6201F084F801210820AA
S113041001F0B6F80121102001F0B2F8012180208A
S113042001F0AEF801214FF4807001F0A9F8012128
S11304304FF4007001F0A4F864B14FF4402001F0CF
S1130440F3F94FF4803001F08DF80C4AD36F43F088
S11304500803D367FFF768FFBDE810404FF0FF3093
S1130460FFF75ABFD0433E0002001E0080002A005E
S113047000362C0000A00840F81C000000800C404E
S11304802DE9F0410746124B5C6E002CFCD1012291
S1130490DFF840801A6646460025334637F81420B4
S11304A030782A4112F0010218BF0122997B0135EC
S11304B001F072F80E2D06F10106EED10134072C7D
S11304C008F11C08E7D10022014B1A66BDE8F0814F
S11304D000A008401010002010B500F05BFE0121C0
S11304E00F4800F0CBFB01220020114600F026FE4D
S11304F001220C4C1146A36A002023F4803323F01C
S1130500030343F00203A36200F018FEA36A002071
S113051023F4801323F00C0343F00803A36210BDFB
S1130520D0433E0000800C4013B50122164B1A64E0
S113053001F0ACF9044601A801F080F90F2C12D99E
S11305409DF80430022B0ED99DF80520022A01D112
S1130550042B08D00D4AD2F8C03023F0500343F0E6
S11305601003C2F8C03001F0C3FA00F01DF801F026
S11305705AFB01F0A7FAFFF7AFFF01F093FA02B0BC
S1130580BDE8104000F004B800000C4000800C40AE
S113059008B50121034800F071FBBDE8084001F0F3
S11305A012BB00BF00D204000121014800F066BB69
S11305B000D2040008B500F0B9F8124B12498B427E
S11305C012D30020114B12498B4218D3FFF7D0FDF0
S11305D0186850F82240586840F822400132986860
S11305E08242F5D30C33EAE70022F8E71C6844F8AA
S11305F0220001325C68A242F8D30833E4E7002207
S1130600F8E700BF481F0000541F0000541F0000FB
S1130610541F000000487047006CDC02254AD36A6E
S113062003F47053B3F5805F3AD0B3F5005F04D0A0
S1130630B3F5006F0BD1204B00E0204B1B681D4A23
S11306401068C0F382300130B3FBF0F07047D36818
S113065003F4E063B3F5407F25D008D8B3F5807F79
S11306600ED0B3F5007F20D0A3B10023E7E7B3F5A4
S1130670806F1CD0B3F5A06F114B18BF0023DEE7C9
S1130680104B114AD3F8FC10104BB1F1985F28BFFE
S11306901346D4E70B4B0E4AD3F8FC100D4BF4E78A
S11306A04FF40043CBE70C4BC9E70C4BC7E70C4BAB
S11306B0C5E700BF00800C40081000200410002093
S11306C0003FAB010081E00F40B56400C0CF6A0079
S11306D0804F120040420F00809FD500C0D8A70071
S11306E0406F400108B5FFF799FF044B5B6803F0C6
S11306F00F03D840024B186008BD00BF00800C40B7
S113070000100020014B1868704700BF081000203B
S1130710044B1860044BDB6A1B0501D5FFF7E2BFED
S1130720704700BF0810002000800C40014A024BB3
S11307309A6070470000000000ED00E0014B18686B
S1130740704700BF0410002010B5431EB3F5004FDE
S1130750044604D2B4FA84F0C0F11F0010BD40F680
S11307609351034801F042FA002CF3D12020F3E71F
S11307700C1D000008B5194B5B6903F4E063B3F585
S1130780407F16D00DD8B3F5807F20D0B3F5007F1D
S113079018D0F3B141F29C61114801F027FA00230B
S11307A00EE0B3F5C06F16D0B3F5E06FF2D10D4B88
S11307B006E001F06BF80C4B0C4A122888BF134674
S11307C0184608BD01F062F8094B0A4AF5E70A4BDE
S11307D0F6E70A4BF4E70A4BF2E700BF00800C404F
S11307E0671D0000406F400140420F00804F12001F
S11307F0C0CF6A0040B56400C0D8A700809FD50070
S1130800003FAB01034B5A6DD20702D41A6D10425C
S1130810FCD1704700800C4008B501F03FF84A282D
S113082005D0792803D0482818D1104815E010497C
S11308300E48D1F8E030D1F8E820D1F8EC101B02D2
S113084003F47C53C1F3031102F0F0020B4313438E
S1130850084AB3F5017F28BF104608BD064841F297
S1130860186101F0C3F90020F7E700BF0048E80170
S113087000FF0FE000366E01671D000010B504464E
S1130880FFF7CAFFA04207D2FFF7C6FFB4EB400F41
S11308900ED80122012301E00022134605498B678B
S11308A005494B6823F4807343EA02234B6010BD6F
S11308B00222EFE70000904300800C40144B5A687A
S11308C06FF0130302F00702134113F0010F114BF1
S11308D009D1984217D8104B104A034493422CBFB5
S11308E00023012308E098420FD80B4B0B4A034422
S11308F0934234BF0323022305494A6822F00702C6
S113090013434B6070470423F6E70523F4E700BF65
S113091000000C400048E801FFDB0BFF0024F4005A
S113092038B541F67133064CE56BE363FFF772FEAD
S1130930ADB2FFF7C3FF0DB10023E36338BD00BFC1
S113094000000C4038B541F67133054CE56BE363A8
S1130950ADB2FFF7B3FF0DB10023E36338BD00BFB1
S113096000000C4008B5C0F30313013B0C2B5AD80C
S1130970DFE803F00759590D5959141D47595959BE
S113098017002A4B1868C0F38230013008BD274B8A
S11309909B6803F00F0301209840F7E7234B5B6843
S11309A0F7E7224B5B68C3F300230133F3E7204BE3
S11309B0984220D00DD81F4B984212D003F58223C1
S11309C0984213D041F62F411B4801F00FF9012042
S11309D0DCE71A4B9842F5D1144B9B6E03F00303EA
S11309E0D9E7124B9B6EC3F30313D4E70F4B9B6EF3
S11309F0C3F30323CFE70D4B9B6EC3F301330433DF
S1130A00C9E70F4B984206D003F50433984205D04A
S1130A1041F64841D8E7054B1B6FDFE7034B1B6FDB
S1130A20C3F30113B7E741F64F41CDE700800C4013
S1130A3080002A0080161200671D000080062E0028
S1130A4090071A0010B5C0F30313013B0C460C2B9E
S1130A5000F20581DFE813F00D0003010301250016
S1130A600301030144006700D100030103010301F2
S1130A7038004C1E072C04D941F67C41794801F01A
S1130A80B5F8FFF74DFF784A136823F4E03343EADF
S1130A9084341460FFF726FEBDE810400021FFF700
S1130AA051BF4B1EB3F5007F04D341F68F416D480F
S1130AB001F09CF82046FFF747FE6B4A936823F049
S1130AC00F030343936010BD0846FFF73DFE664ADB
S1130AD00138536823F4807343EA00235360F2E738
S1130AE04B1EB3F5007F04D341F6A5415D4801F0E8
S1130AF07DF8FFF715FFFFF7F5FDB0FBF4F0FFF706
S1130B00BDFE2046FFF720FE574A536823F00F032B
S1130B1003435360FFF7E6FD0021FFF713FFBDE831
S1130B201040FFF7ABBE514B98424FD00DD8504BFD
S1130B30984220D003F58223984232D041F6FE41F8
S1130B40BDE81040474801F051B84A4B9842F5D1EE
S1130B50082904D941F6F041424801F047F804203D
S1130B60FFF750FE2046FFF7EFFD3F4A936E23F058
S1130B700303034313E0B1F5004F04D941F6C34125
S1130B80384801F033F80420FFF73CFE2046FFF715
S1130B90DBFD354A936E23F0F00343EA00139366BA
S1130BA091E7B1F5004F04D941F6D1412D4801F048
S1130BB01DF80420FFF726FE2046FFF7C5FD2A4A4C
S1130BC0936E23F4706343EA0023E8E7A1F1100372
S1130BD0702B04D94FF4E751224801F007F80420A0
S1130BE0FFF710FE2046FFF7AFFD1F4A0438936E4F
S1130BF023F4405343EA0033D1E71F4B984206D015
S1130C0003F50433984216D041F6245198E7082995
S1130C1004D941F60751134800F0E8FF4020FFF7DC
S1130C20F1FD2046FFF790FD0F4A136F23F00303F5
S1130C300343136747E7082904D941F616510948C5
S1130C4000F0D4FF4020FFF7DDFD2046FFF77CFDD8
S1130C50054A136F23F0300343EA0013E9E741F632
S1130C602A516DE7671D000000800C4080002A00B7
S1130C708016120080062E0090071A0070B5C0F38B
S1130C800323013B04460E46092B16D8DFE803F084
S1130C90302C051515272015151CFFF723FDFFF72C
S1130CA0EDFD154DC4F3043405F1424505F58015F9
S1130CB004EBC504A400266070BD41F6B051BDE844
S1130CC070400E4800F092BF0D4DC0F30434EBE7C2
S1130CD0C0F3043410200B4DFFF794FDE4E7C0F398
S1130CE00434094D0120F7E7084DC0F30434DBE771
S1130CF0074DC0F30434D7E740800C40671D000063
S1130D0078800C4060800C4058800C4044800C403B
S1130D1008800C4008B500F00F00013806284CD8B4
S1130D20DFE800F00414254B4B333B00294BDB6A0E
S1130D3003F47053B3F5805F4AD0B3F5005F45D038
S1130D40B3F5006F0CBF0420052008BD214B986A41
S1130D5000F003000228F8D0032835D0012837D04A
S1130D609B6A13F4803F0CBF01200A20EDE7194A67
S1130D70936A03F00C03082B28D00C2B24D0042BEB
S1130D8026D0936A13F4801FEDE7124B1B6813F00F
S1130D90805F0CBF07200920D7E70E4BDB6A03F402
S1130DA06033B3F5803F11D0B3F5003F10D0B3F5F5
S1130DB0004F0CBF09200120C7E7074842F2013168
S1130DC000F014FF0020C0E70620BEE70220BCE7C5
S1130DD00320BAE700800C40671D000010B52B4BC0
S1130DE00446984223D02A4B984213D041F613115B
S1130DF0284800F0FBFE2046FFF78CFF044641F62E
S1130E004211244800F0F2FE032C37D8DFE804F046
S1130E103B1C2024FFF77EFF1F4A936AC3F3810320
S1130E20013B022B27D8DFE803F00F131700FFF76D
S1130E3071FF194A936A03F00303013B022B12D892
S1130E40DFE803F002060A00BDE8104000F0C8BE67
S1130E50BDE81040FFF772BCFFF744FC0F4B9B6FDB
S1130E600133D84010BD936A1022D3400BD0BDE8A3
S1130E70104000F0B8BE936A1422F6E741F66D11F3
S1130E80044800F0B3FE0020ECE700BF02001E009F
S1130E9003002000671D000000800C400000904308
S1130EA038B500F47813B3F5E01F054600F08780E9
S1130EB02ED8B3F5801F00F0918018D8B3F5802F99
S1130EC050D006D87BB1B3F5003F53D04FF4F7515F
S1130ED07FE0B3F5602FF9D15048FFF71BFF0728D7
S1130EE07CD0092873D1BDE83840FFF797BBB3F530
S1130EF0B01F43D0B3F5D01F5BD0B3F5901FE5D13D
S1130F004748FFF76BFF474B9B6EC3F303132FE078
S1130F10B3F5281F3AD00DD8B3F5001F47D0B3F569
S1130F20181F5FD0B3F5F01FD0D13D48BDE838405D
S1130F30FFF754BFB3F5381F31D0B3F5781F63D032
S1130F40B3F5301FC2D13648FFF748FF354A936ED8
S1130F50C3F30133D840D36F03F007030133B0FB6D
S1130F60F3F038BDFFF75AFB2E4B9B6803F00F03D9
S1130F70D840F6E7BDE83840FFF7B4BB2848FFF790
S1130F802DFF284B9B6EC3F30323F1E72448FFF79F
S1130F9025FF244B9B6EC3F301330433E8E7204859
S1130FA0FFF71CFF1F4B9B6E03F00303E0E71E4893
S1130FB0BCE71D48FFF712FF1A4B1B6FF4E71A48F2
S1130FC0FFF70CFF174B1B6FC3F30113D0E741F27C
S1130FD0D661164800F00AFE0020C2E7BDE838409A
S1130FE0FFF7C8BB1248FFF795FE032808D009286D
S1130FF03FF479AF0228EFD1BDE83840FFF79EBB3C
S1131000BDE8384000F0ECBDFFF76CFB0446284611
S1131010FFF7A8FCB4FBF0F0A3E700BF06000E0046
S113102002001E0000800C4003002000671D000029
S11310300723260010B504461120FFF76BFE042891
S113104004D142F673210C4800F0D0FD08230B4A6A
S113105013621368E17823F4D16323F007030B438D
S1131060617843EA4123217843EA8103A17843EA82
S1131070C113136010BD00BF671D000000800C4049
S113108010B58028044604D942F60D31074800F013
S1131090ADFD074A936D1B0706D4D36F04F0070414
S11310A023F007032343D36710BD00BF671D00006F
S11310B000800C4070B505461120FFF72BFE022876
S11310C004D142F62B31144800F090FD4FF4007324
S11310D0124E3362AC786B78E40244EA83442B7892
S11310E0C3F3400344EA433400F082FD33685C40B8
S11310F024F07F4424F4730424F4474424F0FF04CC
S11311005C40346000F078FD2B78054A03F001035D
S1131110C2F8A03470BD00BF671D000000800C4001
S113112000008C43014B1880704700BF0E10002054
S1131130014B1880704700BF0C10002030B4042805
S11311400BD80E4B1C5C0E4B33F810500D4B33F880
S113115010000D4B39B918620DE042F6F93130BC7C
S11311600A4800F043BD1D622AB1094B23449B0089
S11311701A68002AFCD030BC704700BFAA1D0000CA
S1131180A01D0000961D000000800C40671D00009B
S11311906001E41008B5FFF73FFB0130FFF76EFB79
S11311A0FFF7B0FA104A114B984213684FF002004F
S11311B096BF23F0600343F0600343F02003136001
S11311C001221146FFF7BAFFFFF7AAFB0222064BE2
S11311D05A62FFF787FAFFF751FBFFF783FABDE87E
S11311E008400021FFF7AEBB00800C400048E80136
S11311F010B500F00F04631E062B00F2CD80DFE86B
S113120003F0044E4ECBCB91A300023908293DD8FC
S1131210DFE801F03F42052E3C3C3C3C3500FFF743
S1131220FBFA0130FFF72AFBFFF76CFA5C4B5D4ACF
S11312309842136817D943F06003022004461360F0
S113124001221146FFF77AFFFFF76AFB554B5C62F8
S1131250FFF748FA0446FFF711FB2046BDE81040AB
S11312600021FFF76FBB23F0600343F02003E4E7A2
S1131270FFF7D2FA0130FFF701FB0320E0E742F267
S11312802F51BDE81040484800F0B0BC42F2345140
S1131290F7E700200424D3E701200324D0E7013931
S11312A009292DD8DFE801F02F05192C2C212C2C2D
S11312B02C32012200201146FFF740FF00230221B7
S11312C03848022C826A23D122F4803222F00302AD
S11312D00A4342EA0342826210BD012211461046CB
S11312E0FFF72CFF00230121EAE7FFF7FBF9FFF7E3
S11312F0C5FA01222D4B0321C3F810280023DFE790
S113130042F2DD51BDE700230021D9E70123FBE7C9
S11313101B0522F4801243EA810322F00C021343DA
S11313208362D9E7072904D0092908D042F2386139
S1131330A7E71C4A136823F080531360CCE7194ACB
S1131340136843F08053F8E703290FD0092919D013
S113135002291ED1012200201146FFF7EFFE402290
S1131360104B5A62DA6AD003FCD5B5E70122114664
S11313701046FFF7E3FE60220A4B5A62DA6A9103D1
S1131380FCD5A9E72022074B5A62DA6A1204FCD57D
S1131390A2E742F2776174E742F26D7171E700BF30
S11313A00048E80100800C40671D000000009043E5
S11313B010B504798378094923430478CA6A43EA57
S11313C00443C478407822F4803243EA440322F090
S11313D01F0243EA00131343CB6210BD00600C40AC
S11313E038B5052804460D4605D80A4B33F81030A5
S11313F0CB40DB0704D440F22D41074800F0F6FB54
S113140024220123544304F18044AB4004F5C04436
S1131410236138BD3C1E0000AF1D000038B505280F
S113142004460D4605D80A4B33F81030CB40DB0791
S113143004D440F2FE31074800F0D8FB24220123F3
S1131440544304F18044AB4004F5C044636138BDA7
S11314503C1E0000AF1D0000F8B5052805460C46EB
S113146016461F4605D81C4B33F81030CB40DB071B
S113147004D44FF4B071194800F0B8FB26B12146EA
S11314802846C7B1FFF7ACFF2423072C4FF00F0108
S113149005FB03F312D8A00006FA00F281401048BD
S11314A0184400F0ACFBAEB92146284677B1BDE83C
S11314B0F840FFF795BFFFF7B1FFE5E7A4F1080097
S11314C0800006FA00F281400648E9E7BDE8F840EA
S11314D0FFF7A4BFF8BD00BF3C1E00000B1E0000B8
S11314E0046000400860004070B51F2905460C46A2
S11314F0164603D99121064800F078FB05F14240D5
S113150000F5801004EBC004A400266070BD00BF89
S1131510481E000070B5114D04466E6818B9462186
S11315200F4800F063FB2B68E26823F001032B6093
S11315306368134326F4830222F01F021343227AC2
S11315401343627A1A43238A13436B6023781BB1D3
S11315502B6843F001032B6070BD00BF00A008405E
S1131560A31E0000054AB0F5803F536823F480337E
S113157008BF43F480335360704700BF00A00840A5
S1131580044B9A6811B102439A60704722EA000240
S1131590FAE700BF00A0084037B5072805460C4607
S11315A013DD40F22721374800F020FB272C04DD0F
S11315B040F22E21334800F019FB4FF426713148D4
S11315C003B0BDE8304000F011BB27290EDD40F226
S11315D02E212C48019200F009FB019A072DECD82A
S11315E0DFE805F0141C242C343C444C0728E4D8D0
S11315F0DFE800F004101820283038401F2905DCEB
S1131600214803B0BDE83040FFF76EBF1F48A4F186
S11316102001F6E71F2901DC1D48F2E71D48A4F16B
S11316202001EEE71F2901DC1B48EAE71B48A4F16F
S11316302001E6E71F2901DC1948E2E71948A4F173
S11316402001DEE71F2901DC1748DAE71748A4F177
S11316502001D6E71F2901DC1548D2E71548A4F17B
S11316602001CEE71F2901DC1348CAE71348A4F17F
S11316702001C6E71F2901DC1148C2E71148A4F183
S11316802001BEE7A31E000040A0084050A008406F
S113169044A0084054A0084048A0084058A008406E
S11316A04CA008405CA00840CCA00840B4A008406E
S11316B0D0A00840B8A00840D4A00840BCA008406E
S11316C0D8A00840C0A0084008B507280BDD40F2A8
S11316D00331294800F08AFABDE8084040F243315A
S11316E0254800F083BA0728F6D8DFE800F0040B99
S11316F012192029323B214B186C42400A404240C7
S11317001A6408BD1D4B586C42400A4042405A645A
S1131710F7E71A4B986C42400A4042409A64F0E75B
S1131720164BD86C42400A404240DA64E9E7134B56
S1131730D3F8CC0042400A404240C3F8CC20E0E752
S11317400E4BD3F8D00042400A404240C3F8D020A8
S1131750D7E70A4BD3F8D40042400A404240C3F8CA
S1131760D420CEE7054BD3F8D80042400A4042408B
S1131770C3F8D820C5E700BFA31E000000A008409E
S1131780072804DD4FF45771254800F02FBA0728C5
S113179044D8DFE800F0040B12192029323B214B16
S11317A0186D42400A4042401A6570471D4B586DFF
S11317B042400A4042405A6570471A4B986D424075
S11317C00A4042409A657047164BD86D42400A4021
S11317D04240DA657047134BD3F8B40042400A40E4
S11317E04240C3F8B42070470E4BD3F8B8004240CF
S11317F00A404240C3F8B82070470A4BD3F8BC00F3
S113180042400A404240C3F8BC207047054BD3F81D
S1131810C00042400A404240C3F8C020704700BFA5
S1131820A31E000000A00840034A536823F4E013F9
S113183003435360704700BF00A0084010B504463E
S113184018B957210F4800F0D1F90F4AD2F8E43003
S1131850D2F8E0109B0003F03C03C1F381110B4369
S1131860A370D2F8E03003F03F036370D2F8E8309D
S1131870D2F8EC2003F0F003C2F3031213432370F5
S113188010BD00BFD21E000000FF0FE0024BD3F8D2
S1131890FC00000E704700BF0081E00F024BD3F83C
S11318A0FC00C0F3074070470081E00FF8B507461D
S11318B00C461D4616464AB94FF4A171314800F052
S11318C095F924B1402D08D1062327E019B92E48F3
S11318D0FFF7E6FA0446402D42D0402D09D87DB1E9
S11318E0202D17D040F28911BDE8F840254800F0BA
S11318F07DB9602DF6D1B6EB940F3CD804230DE0EE
S1131900B6EB141F04D94FF4BA711E4800F06EF9F7
S1131910102303E0B6EBD40F1CD808235E437308EE
S113192003EB8403B3FBF6F3184E043BB6EB831FBF
S11319304FEA831404D24FF4D071124800F056F9E0
S11319403B68344023F060033B603B681D433D60CB
S11319507C61F8BD40F279110A4800F047F9DCE7F0
S11319600623B4FBF3F3B342AED24FF4BF71054880
S113197000F03CF9A8E740F28311024800F036F980
S1131980BCE700BF041F000040810400C0FF1F002B
S113199010B51C4B0446984214D003F5806398425A
S11319A010D003F5806398420CD003F5C0539842DD
S11319B008D003F58063984204D040F242411248B3
S11319C000F014F940F6AA6341F20502E360002333
S11319D02360626041F6F972A3606361E364A26408
S11319E0084A6365944202D12365A36510BDA365CB
S11319F0064B9C4203D003F580639C42F6D100233E
S1131A00E365F3E700C00040041F000000C4004089
S1131A1038B5224B044698420D4614D003F5806332
S1131A20984210D003F5806398420CD003F5C0535C
S1131A30984208D003F58063984204D040F2FD2117
S1131A40174800F0D3F82046FFF7A2FFAB7C1BB188
S1131A50236843F080432360EB7C1BB12B7D43F070
S1131A601003A3652A8A6B7B20461343EA89134338
S1131A7063602B7BD5E90112FFF718FF6B7D1BB167
S1131A80236843F480332360AB7D1BB1236843F4A4
S1131A90004323602B78E36038BD00BF00C00040E2
S1131AA0041F000007B5064B18681B7900906846B0
S1131AB08DF80430FFF77CFC002003B05DF804FBD4
S1131AC0351F000007B5084B186801900748FEF75A
S1131AD01FFE01A8FFF7AEFA3220FFF729FB002012
S1131AE003B05DF804FB00BF3A1F0000006CDC0289
S1131AF010B56FF00403A0210A480B4C13F0800FBB
S1131B0003F1010207D12344272A83F80013134663
S1131B10F4D1002010BD03F00F03043B03441976F5
S1131B201346EBE700ED00E000E100E008B5064BEA
S1131B30044613B10021AFF30080044B1B6803B1CA
S1131B409847204600F053F800000000FC100020E5
S1131B5070B500260C4D0D4C641BA410A64209D18F
S1131B6000F09EF800260A4D0A4C641BA410A642FD
S1131B7005D170BD55F8043B98470136EEE755F89A
S1131B80043B98470136F2E7D4100020D41000201B
S1131B90D4100020D810002008B50020FEF71AFC4D
S1131BA0BDE80840FEF71EBB704708B500F04CF8CE
S1131BB0FFF7F2FFFEF740FB00F053F8FFF7F4FFE6
S1131BC0FEF798FBF8E77047704700F006B87047D7
S1131BD0704770477047704770470F207047FEE7A3
S1131BE04FF4004070474FF47A707047FEE7FEE709
S1131BF0EFF3108072B6704700B962B6704770B5E3
S1131C00054614460E46FFF7F3FF2B685C4034404C
S1131C105C402C60BDE87040FFF7EEBF03695B06D3
S1131C20FCD54163704713B54FF44073002401A8F9
S1131C30ADF804308DF80640FFF73CFA3220FFF788
S1131C4071FA204602B010BD08B5FEF76DFCFFF72F
S1131C50BBFFFFF7BAFFFFF7BAFFBDE80840FFF785
S1131C60B7BF08B5FFF7B5FFFFF7B4FFFFF7B3FF42
S1131C70BDE80840FFF7B0BF03460244934200D1D9
S1131C80704703F8011BF9E70000000000000000A2
S1131C900000000000000000000000000000000040
S1131CA0F8B500BFF8BC08BC9E467047F8B500BF45
S1131CB0F8BC08BC9E46704700000000000000000D
S1131CC00000000000000000000000000000000010
S1131CD00000000000000000000000000000000000
S1131CE0050000000000000000C201000005000023
S1131CF0001000000000000001000000030040008C
S1131D000C00000000000000000000002F55736567
S1131D1072732F67657267656C7974616D6173792D
S1131D202F446F63756D656E74732F62737A665F8B
S1131D3068617A692F736E616B652F6765636B6F7A
S1131D405F73646B5F342E342E342F706C61746651
S1131D506F726D2F656D6C69622F696E632F656D8F
S1131D605F636D752E68002E2E2F6765636B6F5F42
S1131D7073646B5F342E342E342F706C6174666F11
S1131D80726D2F656D6C69622F7372632F656D5F61
S1131D90636D752E630000028000080002002000BD
S1131DA00001400004000100100009070301052F91
S1131DB055736572732F67657267656C7974616DAD
S1131DC06173792F446F63756D656E74732F6273DD
S1131DD07A665F68617A692F736E616B652F6765D8
S1131DE0636B6F5F73646B5F342E342E342F706CAF
S1131DF06174666F726D2F656D6C69622F696E63B5
S1131E002F656D5F6770696F2E68002E2E2F6765D2
S1131E10636B6F5F73646B5F342E342E342F706C7E
S1131E206174666F726D2F656D6C69622F73726376
S1131E302F656D5F6770696F2E630000FFFFFFFF02
S1131E40FFFFFFFFFFFFFF1F2F55736572732F679F
S1131E50657267656C7974616D6173792F446F6322
S1131E60756D656E74732F62737A665F68617A69E3
S1131E702F736E616B652F6765636B6F5F73646B44
S1131E805F342E342E342F706C6174666F726D2F34
S1131E90656D6C69622F696E632F656D5F62757322
S1131EA02E68002E2E2F6765636B6F5F73646B5F04
S1131EB0342E342E342F706C6174666F726D2F65FE
S1131EC06D6C69622F7372632F656D5F6C63642E32
S1131ED063002E2E2F6765636B6F5F73646B5F34D3
S1131EE02E342E342F706C6174666F726D2F656D95
S1131EF06C69622F7372632F656D5F737973746598
S1131F006D2E63002E2E2F6765636B6F5F73646B9A
S1131F105F342E342E342F706C6174666F726D2FA3
S1131F20656D6C69622F7372632F656D5F75736184
S1131F3072742E630000000001010303000000001E
S10B1F4028E2FF7F010000000C
S10F1F48541F00000010002037000000AF
S1131F54809FD50000800000006CDC02FFFFFFFFBF
S1131F6401010507070304020302040605060D0E16
S1131F740E0E0D0D0D0D0E0E0E0E0D0D01010507A9
S1131F84070304020302040605060F1010100F0FC2
S1131F940F0F101010100F0F01010507070304029F
S1131FA40302040605061112121211111111121260
S1131FB412121111010105070703040203020406A6
S1131FC40506131C1C1C131313131C1C1C1C1313B5
S1131FD400010507060203010302040604051D1E8D
S1131FE41E1E1D1D1D1D1E1E1E1E1D1D000105077A
S1131FF4060203010302040604051F2020201F1FF8
S11320041F1F202020201F1F0101050707030402AE
S1132014030204060506212222222121212122224F
S10F202422222121450100001D010000C2
S90305B542
