S00C0000736E616B652E733337D6
S11300000010002011080000152D0000152D00001F
S1130010152D0000152D0000152D0000152D0000D4
S1130020152D0000152D0000152D0000152D0000C4
S1130030152D0000152D0000152D0000152D0000B4
S1130040152D0000152D0000152D0000152D0000A4
S1130050152D0000152D0000152D0000152D000094
S1130060152D0000152D0000152D0000152D000084
S1130070152D0000152D0000152D0000152D000074
S1130080152D0000152D0000152D0000152D000064
S1130090D1030000152D0000152D0000152D0000C2
S11300A0152D0000152D0000152D0000152D000044
S11300B0152D0000152D0000152D0000152D000034
S11300C0152D0000152D0000152D0000152D000024
S11300D0152D0000152D0000152D00000000000056
S11300E0013800D0FCE770470348044B834202D038
S11300F0034B03B1184770473C1100203C1100200A
S1130100000000000548064B1B1AD90F01EBA301A0
S1130110491002D0034B03B1184770473C1100202B
S11301203C1100200000000010B5064C237843B9B0
S1130130FFF7DAFF044B13B10448AFF30080012347
S1130140237010BDB212002000000000003900002E
S113015008B5054B1BB105490548AFF30080BDE860
S11301600840FFF7CFBF00BF000000003C11002093
S113017000390000A3F5803A704700BF174B002BED
S113018008BF134B9D46FFF7F5FF00218B460F4632
S11301901348144A121A02F03EFE0E4B002B00D0F4
S11301A098470D4B002B00D09847002000210400F5
S11301B00D000D48002802D00C48AFF3008001F078
S11301C06DFF2000290002F02EFD01F017FE00BF94
S11301D000000800000000000000000000100020E3
S11301E03C110020B81200200000000000000000B4
S11301F0014801F0D9BD00BF80841E00F8B5002479
S1130200064D27462E460134304625F8027BE4B2DB
S113021000F064FA072CF6D1F8BD00BFA412002048
S113022084B070B504AC84E80F006B9CFFF7E6FF64
S113023000206A9D3F4AC3B2AB4208DB6C9B062B8D
S113024059D8DFE803F0434B515E646A7000591CCF
S113025004AE04AB53F8313006EBC10149680629FA
S11302601AD8DFE801F0040C121B21272D00DBB2A1
S113027012F8131041F0010102F813100CE0DBB284
S113028012F8131041F02001F6E7DBB232F8131034
S113029041F4886122F813100130CCE7DBB212F884
S11302A0131041F01001E7E7DBB212F8131041F02C
S11302B00801E1E7DBB212F8131041F00201DBE7B9
S11302C0DBB212F8131041F00401D5E7194A12F811
S11302D0143043F0010302F814300CE0154A12F80C
S11302E0143043F02003F6E7124A32F8143043F492
S11302F0886322F81430BDE870400E4804B000F062
S1130300EDB90C4A12F8143043F01003E3E7094A3C
S113031012F8143043F00803DDE7064A12F81430EB
S113032043F00203D7E7034A12F8143043F00403FE
S1130330D1E700BFA412002030B587B06C461F4A35
S11303400721536C052043F4005353641C4D0123CF
S1130350042201F0BFF901211A4800F0CDFD0FCDB0
S11303600FC495E8030084E80300174C694620464F
S113037001F08CFC042201231046002101F0AAF9AB
S1130380012200231146042001F0A4F9636D4FF407
S1130390801243F480736365636D43F00303636504
S11303A041F6F973A364E36C43F00403E364074B7D
S11303B0C3F880211A6007B030BD00BF00800C4034
S11303C0603300000032040000E0004000E100E07F
S11303D00122054B05491A60054AD369DBB20B605B
S11303E041F6F973936470475811002054110020AA
S11303F000E0004038B50378214A0B7013680446C6
S1130400002B3BD000231F4D13602A686A2A0CD1AD
S11304100278032A09D8DFE802F00212161A01232F
S113042072210370184802F0A6FC2B68622B25D1B8
S11304302378032B22D8DFE803F00D15191D0223BE
S113044064210370EEE703236C210370EAE775214E
S11304500370E7E703236C2123700B48BDE83840A1
S113046002F089BC002375212370F6E70123722171
S11304702370F2E7022364212370EEE738BD00BF46
S1130480581100205411002000E00040F8B5002568
S11304900E461446054FA54201DB2046F8BD715DAA
S11304A0384602F068FC0135F5E700BF00E0004083
S11304B0024A536E0342FCD1704700BF00A00840BB
S11304C010B50022284C1046214601F03BFA214683
S11304D00022012001F036FA21460022022001F018
S11304E031FA21460022032001F02CFA2146002291
S11304F0042001F027FA21460022052001F022FA07
S113050021460022062001F01DFA21460022072080
S113051001F018FA0022FF21104601F06FFA0022C0
S1130520FF21012001F06AFA0022FF21022001F0DC
S113053065FA0022FF21032001F060FA0022FF2166
S1130540042001F05BFA0022FF21052001F056FA95
S11305500022FF21062001F051FABDE810400022DC
S1130560FF21072001F04ABA00F00FF010B5012175
S11305700446224800F0C0FC0321214800F076FF25
S11305804021204800F09CFB012000F0B7FE01212F
S11305901D4800F0B1FC1D4B1D489A6A00229A6266
S11305A001F0F6F80121082001F028F901211020BA
S11305B001F024F90121802001F020F901214FF4F8
S11305C0807001F01BF901214FF4007001F016F95D
S11305D064B14FF4402001F065FA4FF4803001F02B
S11305E0FFF80C4AD36F43F00803D367FFF768FFA3
S11305F0BDE810404FF0FF30FFF75ABFD0433E0034
S113060002001E0080002A0000362C0000A00840D2
S11306107833000000800C402DE9F84F42F20E734D
S1130620984204464BDC294B984204DB002803DB48
S11306304FF0000A06E01C46204602F0CAFB4FF0C9
S1130640010A044601254FF0FF30FFF731FF204B2C
S113065000271D6602F02CFB4FF00A09BAF1000FC7
S113066001D0032F30D094FBF5F393FBF9F209FB8F
S113067012339BB20E264FF00008164A32F813B01C
S1130680154B06FB07364BFA08F2D30706D50122B1
S113069096F8CB1096F8C40001F0BCF808F10108F4
S11306A0B8F1070F06F10106EDD10137042F09FB5C
S11306B005F5D3D10022064B1A66BDE8F88F4FF03A
S11306C0000A42F20F74BDE71023D3E719FCFFFFC1
S11306D000A008408C330000AE3300002DE9F04147
S11306E00746124B5C6E002CFCD10122DFF84080DF
S11306F01A6646460025334637F8142030782A41D6
S113070012F0010218BF0122997B013501F082F831
S11307100E2D06F10106EED10134072C08F11C0858
S1130720E7D10022014B1A66BDE8F08100A0084021
S11307307010002010B500F06BFE01210F4800F08E
S1130740DBFB01220020114600F036FE01220C4C96
S11307501146A36A002023F4803323F0030343F0FB
S11307600203A36200F028FEA36A002023F480138E
S113077023F00C0343F00803A36210BDD0433E00F2
S113078000800C4013B50122164B1A6401F0BCF929
S1130790044601A801F090F90F2C12D99DF80430F9
S11307A0022B0ED99DF80520022A01D1042B08D072
S11307B00D4AD2F8C03023F0500343F01003C2F8BE
S11307C0C03001F0D3FA00F01DF802F0D9FA01F0BC
S11307D0B7FAFFF7AFFF01F0A3FA02B0BDE810408B
S11307E000F004B800000C4000800C4008B5012162
S11307F0034800F081FBBDE8084002F07FBA00BF67
S113080000D204000121014800F076BB00D20400AC
S113081008B500F0B9F8124B12498B4212D30020EC
S1130820114B12498B4218D3FFF7A8FC186850F8F3
S11308302240586840F82240013298688242F5D339
S11308400C33EAE70022F8E71C6844F8220001327E
S11308505C68A242F8D30833E4E70022F8E700BF5B
S1130860083900001439000014390000143900005C
S113087000487047006CDC02254AD36A03F47053C5
S1130880B3F5805F3AD0B3F5005F04D0B3F5006FE1
S11308900BD1204B00E0204B1B681D4A1068C0F3AD
S11308A082300130B3FBF0F07047D36803F4E063A7
S11308B0B3F5407F25D008D8B3F5807F0ED0B3F5CB
S11308C0007F20D0A3B10023E7E7B3F5806F1CD0ED
S11308D0B3F5A06F114B18BF0023DEE7104B114A8C
S11308E0D3F8FC10104BB1F1985F28BF1346D4E73E
S11308F00B4B0E4AD3F8FC100D4BF4E74FF40043B6
S1130900CBE70C4BC9E70C4BC7E70C4BC5E700BF63
S113091000800C400810002004100020003FAB01B0
S11309200081E00F40B56400C0CF6A00804F120020
S113093040420F00809FD500C0D8A700406F4001FF
S113094008B5FFF799FF044B5B6803F00F03D84029
S1130950024B186008BD00BF00800C40001000204E
S1130960014B1868704700BF08100020044B186042
S1130970044BDB6A1B0501D5FFF7E2BF704700BFDC
S11309800810002000800C40014A024B9A60704716
S11309900000000000ED00E0014B1868704700BF44
S11309A0041000200346054A0549106803448B429D
S11309B08CBF4FF0FF301360704700BF0C10002055
S11309C00000022010B5431EB3F5004F044604D2C4
S11309D0B4FA84F0C0F11F0010BD40F693510348EF
S11309E002F09FF9002CF3D12020F3E7AC3500008E
S11309F008B5194B5B6903F4E063B3F5407F16D087
S1130A000DD8B3F5807F20D0B3F5007F18D0F3B1B3
S1130A1041F29C61114802F084F900230EE0B3F521
S1130A20C06F16D0B3F5E06FF2D10D4B06E001F0C4
S1130A306BF80C4B0C4A122888BF1346184608BDA5
S1130A4001F062F8094B0A4AF5E70A4BF6E70A4B4C
S1130A50F4E70A4BF2E700BF00800C4007360000C1
S1130A60406F400140420F00804F1200C0CF6A0027
S1130A7040B56400C0D8A700809FD500003FAB01FB
S1130A80034B5A6DD20702D41A6D1042FCD1704741
S1130A9000800C4008B501F03FF84A2805D07928B9
S1130AA003D0482818D1104815E010490E48D1F851
S1130AB0E030D1F8E820D1F8EC101B0203F47C53A9
S1130AC0C1F3031102F0F0020B431343084AB3F5D8
S1130AD0017F28BF104608BD064841F2186102F0A4
S1130AE020F90020F7E700BF0048E80100FF0FE00D
S1130AF000366E010736000010B50446FFF7CAFF42
S1130B00A04207D2FFF7C6FFB4EB400F0ED8012274
S1130B10012301E00022134605498B6705494B6810
S1130B2023F4807343EA02234B6010BD0222EFE7F3
S1130B300000904300800C40144B5A686FF013037C
S1130B4002F00702134113F0010F114B09D198422F
S1130B5017D8104B104A034493422CBF002301239F
S1130B6008E098420FD80B4B0B4A0344934234BF1E
S1130B700323022305494A6822F0070213434B600A
S1130B8070470423F6E70523F4E700BF00000C4098
S1130B900048E801FFDB0BFF0024F40038B541F600
S1130BA07133064CE56BE363FFF762FEADB2FFF70A
S1130BB0C3FF0DB10023E36338BD00BF00000C4048
S1130BC038B541F67133054CE56BE363ADB2FFF71D
S1130BD0B3FF0DB10023E36338BD00BF00000C4038
S1130BE008B5C0F30313013B0C2B5AD8DFE803F01C
S1130BF00759590D5959141D4759595917002A4B6A
S1130C001868C0F38230013008BD274B9B6803F09D
S1130C100F0301209840F7E7234B5B68F7E7224B6B
S1130C205B68C3F300230133F3E7204B984220D0E1
S1130C300DD81F4B984212D003F58223984213D04B
S1130C4041F62F411B4802F06CF80120DCE71A4BF7
S1130C509842F5D1144B9B6E03F00303D9E7124B72
S1130C609B6EC3F30313D4E70F4B9B6EC3F30323B1
S1130C70CFE70D4B9B6EC3F301330433C9E70F4B2E
S1130C80984206D003F50433984205D041F6484112
S1130C90D8E7054B1B6FDFE7034B1B6FC3F301134F
S1130CA0B7E741F64F41CDE700800C4080002A00B1
S1130CB0801612000736000080062E0090071A00E6
S1130CC010B5C0F30313013B0C460C2B00F2058155
S1130CD0DFE813F00D000301030125000301030104
S1130CE044006700D10003010301030138004C1ED6
S1130CF0072C04D941F67C41794802F012F8FFF739
S1130D004DFF784A136823F4E03343EA84341460D3
S1130D10FFF716FEBDE810400021FFF751BF4B1E40
S1130D20B3F5007F04D341F68F416D4801F0F9FF1C
S1130D302046FFF747FE6B4A936823F00F030343F3
S1130D40936010BD0846FFF73DFE664A01385368BC
S1130D5023F4807343EA00235360F2E74B1EB3F598
S1130D60007F04D341F6A5415D4801F0DAFFFFF7A7
S1130D7015FFFFF7E5FDB0FBF4F0FFF7BDFE2046DD
S1130D80FFF720FE574A536823F00F0303435360D1
S1130D90FFF7D6FD0021FFF713FFBDE81040FFF772
S1130DA0ABBE514B98424FD00DD8504B984220D0F7
S1130DB003F58223984232D041F6FE41BDE810404B
S1130DC0474801F0AEBF4A4B9842F5D1082904D9EF
S1130DD041F6F041424801F0A4FF0420FFF750FE21
S1130DE02046FFF7EFFD3F4A936E23F003030343CE
S1130DF013E0B1F5004F04D941F6C341384801F07E
S1130E0090FF0420FFF73CFE2046FFF7DBFD354A48
S1130E10936E23F0F00343EA0013936691E7B1F570
S1130E20004F04D941F6D1412D4801F07AFF042046
S1130E30FFF726FE2046FFF7C5FD2A4A936E23F4EA
S1130E40706343EA0023E8E7A1F11003702B04D98F
S1130E504FF4E751224801F064FF0420FFF710FE2D
S1130E602046FFF7AFFD1F4A0438936E23F4405326
S1130E7043EA0033D1E71F4B984206D003F504330D
S1130E80984216D041F6245198E7082904D941F62E
S1130E900751134801F045FF4020FFF7F1FD2046BC
S1130EA0FFF790FD0F4A136F23F003030343136707
S1130EB047E7082904D941F61651094801F031FFE2
S1130EC04020FFF7DDFD2046FFF77CFD054A136F48
S1130ED023F0300343EA0013E9E741F62A516DE7B2
S1130EE00736000000800C4080002A0080161200A3
S1130EF080062E0090071A0070B5C0F30323013B4F
S1130F0004460E46092B16D8DFE803F0302C0515ED
S1130F1015272015151CFFF713FDFFF7EDFD154DE3
S1130F20C4F3043405F1424505F5801504EBC5040A
S1130F30A400266070BD41F6B051BDE870400E4873
S1130F4001F0EFBE0D4DC0F30434EBE7C0F30434FD
S1130F5010200B4DFFF794FDE4E7C0F30434094D72
S1130F600120F7E7084DC0F30434DBE7074DC0F375
S1130F700434D7E740800C400736000078800C40EA
S1130F8060800C4058800C4044800C4008800C4029
S1130F9008B500F00F00013806284CD8DFE800F04F
S1130FA00414254B4B333B00294BDB6A03F4705389
S1130FB0B3F5805F4AD0B3F5005F45D0B3F5006F59
S1130FC00CBF0420052008BD214B986A00F00300E3
S1130FD00228F8D0032835D0012837D09B6A13F4AF
S1130FE0803F0CBF01200A20EDE7194A936A03F001
S1130FF00C03082B28D00C2B24D0042B26D0936A66
S113100013F4801FEDE7124B1B6813F0805F0CBFD5
S113101007200920D7E70E4BDB6A03F46033B3F5EE
S1131020803F11D0B3F5003F10D0B3F5004F0CBF93
S113103009200120C7E7074842F2013101F071FE9F
S11310400020C0E70620BEE70220BCE70320BAE781
S113105000800C400736000010B52B4B0446984224
S113106023D02A4B984213D041F61311284801F09B
S113107058FE2046FFF78CFF044641F642112448EF
S113108001F04FFE032C37D8DFE804F03B1C20248A
S1131090FFF77EFF1F4A936AC3F38103013B022BD0
S11310A027D8DFE803F00F131700FFF771FF194A81
S11310B0936A03F00303013B022B12D8DFE803F029
S11310C002060A00BDE8104001F025BEBDE810404C
S11310D0FFF762BCFFF734FC0F4B9B6F0133D84022
S11310E010BD936A1022D3400BD0BDE8104001F02C
S11310F015BE936A1422F6E741F66D11044801F017
S113110010FE0020ECE700BF02001E0003002000D8
S11311100736000000800C400000904338B500F40E
S11311207813B3F5E01F054600F087802ED8B3F599
S1131130801F00F0918018D8B3F5802F50D006D8C6
S11311407BB1B3F5003F53D04FF4F7517FE0B3F5D3
S1131150602FF9D15048FFF71BFF07287CD00928DE
S113116073D1BDE83840FFF787BBB3F5B01F43D058
S1131170B3F5D01F5BD0B3F5901FE5D14748FFF717
S11311806BFF474B9B6EC3F303132FE0B3F5281F8C
S11311903AD00DD8B3F5001F47D0B3F5181F5FD070
S11311A0B3F5F01FD0D13D48BDE83840FFF754BF38
S11311B0B3F5381F31D0B3F5781F63D0B3F5301FC2
S11311C0C2D13648FFF748FF354A936EC3F3013363
S11311D0D840D36F03F007030133B0FBF3F038BDFD
S11311E0FFF74AFB2E4B9B6803F00F03D840F6E74A
S11311F0BDE83840FFF7A4BB2848FFF72DFF284B74
S11312009B6EC3F30323F1E72448FFF725FF244B28
S11312109B6EC3F301330433E8E72048FFF71CFF58
S11312201F4B9B6E03F00303E0E71E48BCE71D4819
S1131230FFF712FF1A4B1B6FF4E71A48FFF70CFF76
S1131240174B1B6FC3F30113D0E741F2D661164865
S113125001F067FD0020C2E7BDE83840FFF7C8BBD6
S11312601248FFF795FE032808D009283FF479AF08
S11312700228EFD1BDE83840FFF78EBBBDE8384007
S113128001F049BDFFF75CFB04462846FFF7A8FCC4
S1131290B4FBF0F0A3E700BF06000E0002001E003E
S11312A000800C40030020000736000007232600BE
S11312B010B504461120FFF76BFE042804D142F652
S11312C073210C4801F02DFD08230B4A13621368A7
S11312D0E17823F4D16323F007030B43617843EAF5
S11312E04123217843EA8103A17843EAC1131360BF
S11312F010BD00BF0736000000800C4010B58028E8
S1131300044604D942F60D31074801F00AFD074AA4
S1131310936D1B0706D4D36F04F0070423F007036F
S11313202343D36710BD00BF0736000000800C4084
S113133070B505461120FFF72BFE022804D142F6B2
S11313402B31144801F0EDFC4FF40073124E33625C
S1131350AC786B78E40244EA83442B78C3F340030B
S113136044EA433401F0F1FC33685C4024F07F44E8
S113137024F4730424F4474424F0FF045C403460F0
S113138001F0E7FC2B78054A03F00103C2F8A0340E
S113139070BD00BF0736000000800C4000008C4385
S11313A0014B1880704700BF6E100020014B18805D
S11313B0704700BF6C10002030B404280BD80E4BCB
S11313C01C5C0E4B33F810500D4B33F810000D4BD2
S11313D039B918620DE042F6F93130BC0A4801F01F
S11313E0A0BC1D622AB1094B23449B001A68002A41
S11313F0FCD030BC704700BF4A36000040360000C5
S11314003636000000800C40073600006001E4100E
S113141008B5FFF73FFB0130FFF76EFBFFF7A0FABB
S1131420104A114B984213684FF0020096BF23F004
S1131430600343F0600343F020031360012211466C
S1131440FFF7BAFFFFF7AAFB0222064B5A62FFF727
S113145077FAFFF751FBFFF773FABDE80840002164
S1131460FFF7AEBB00800C400048E80110B500F067
S11314700F04631E062B00F2CD80DFE803F0044E58
S11314804ECBCB91A300023908293DD8DFE801F007
S11314903F42052E3C3C3C3C3500FFF7FBFA013053
S11314A0FFF72AFBFFF75CFA5C4B5D4A984213682E
S11314B017D943F060030220044613600122114649
S11314C0FFF77AFFFFF76AFB554B5C62FFF738FAC8
S11314D00446FFF711FB2046BDE810400021FFF74A
S11314E06FBB23F0600343F02003E4E7FFF7D2FA75
S11314F00130FFF701FB0320E0E742F22F51BDE882
S11315001040484801F00DBC42F23451F7E7002086
S11315100424D3E701200324D0E7013909292DD875
S1131520DFE801F02F05192C2C212C2C2C32012260
S113153000201146FFF740FF002302213848022C07
S1131540826A23D122F4803222F003020A4342EA5F
S11315500342826210BD012211461046FFF72CFFA0
S113156000230121EAE7FFF7EBF9FFF7C5FA0122AF
S11315702D4B0321C3F810280023DFE742F2DD518D
S1131580BDE700230021D9E70123FBE71B0522F473
S1131590801243EA810322F00C0213438362D9E7E9
S11315A0072904D0092908D042F23861A7E71C4A68
S11315B0136823F080531360CCE7194A136843F08F
S11315C08053F8E703290FD0092919D002291ED125
S11315D0012200201146FFF7EFFE4022104B5A6211
S11315E0DA6AD003FCD5B5E7012211461046FFF7AD
S11315F0E3FE60220A4B5A62DA6A9103FCD5A9E73A
S11316002022074B5A62DA6A1204FCD5A2E742F29E
S1131610776174E742F26D7171E700BF0048E80139
S113162000800C40073600000000904310B5047998
S11316308378094923430478CA6A43EA0443C47893
S1131640407822F4803243EA440322F01F0243EA42
S113165000131343CB6210BD00600C4038B505285D
S113166004460D4605D80A4B33F81030CB40DB074F
S113167004D440F22D41074801F053FB24220123F6
S1131680544304F18044AB4004F5C044236138BDA5
S1131690DC3600004F36000038B5052804460D46F8
S11316A005D80A4B33F81030CB40DB0704D440F2A2
S11316B0FE31074801F035FB24220123544304F191
S11316C08044AB4004F5C044636138BDDC3600009F
S11316D04F360000F8B5052805460C4616461F4649
S11316E005D81C4B33F81030CB40DB0704D44FF43F
S11316F0B071194801F015FB26B121462846C7B13F
S1131700FFF7ACFF2423072C4FF00F0105FB03F375
S113171012D8A00006FA00F281401048184401F0E3
S11317201BFBAEB92146284677B1BDE8F840FFF768
S113173095BFFFF7B1FFE5E7A4F10800800006FAC2
S113174000F281400648E9E7BDE8F840FFF7A4BF8E
S1131750F8BD00BFDC360000AB360000046000407A
S11317600860004070B51F2905460C46164603D98B
S11317709121064801F0D5FA05F1424000F58010A8
S113178004EBC004A400266070BD00BFE83600006E
S113179070B5114D04466E6818B946210F4801F022
S11317A0C0FA2B68E26823F001032B6063681343DB
S11317B026F4830222F01F021343227A1343627A2F
S11317C01A43238A13436B6023781BB12B6843F0BD
S11317D001032B6070BD00BF00A008404337000028
S11317E0054AB0F5803F536823F4803308BF43F4BF
S11317F080335360704700BF00A00840044B9A68D0
S113180011B102439A60704722EA0002FAE700BF6E
S113181000A0084037B5072805460C4613DD40F202
S11318202721374801F07DFA272C04DD40F22E21D0
S1131830334801F076FA4FF42671314803B0BDE81D
S1131840304001F06EBA27290EDD40F22E212C48DB
S1131850019201F066FA019A072DECD8DFE805F051
S1131860141C242C343C444C0728E4D8DFE800F052
S113187004101820283038401F2905DC214803B003
S1131880BDE83040FFF76EBF1F48A4F12001F6E722
S11318901F2901DC1D48F2E71D48A4F12001EEE7F1
S11318A01F2901DC1B48EAE71B48A4F12001E6E7F5
S11318B01F2901DC1948E2E71948A4F12001DEE7F9
S11318C01F2901DC1748DAE71748A4F12001D6E7FD
S11318D01F2901DC1548D2E71548A4F12001CEE701
S11318E01F2901DC1348CAE71348A4F12001C6E705
S11318F01F2901DC1148C2E71148A4F12001BEE709
S11319004337000040A0084050A0084044A00840CD
S113191054A0084048A0084058A008404CA00840E3
S11319205CA00840CCA00840B4A00840D0A0084067
S1131930B8A00840D4A00840BCA00840D8A00840E3
S1131940C0A0084008B507280BDD40F20331294840
S113195001F0E7F9BDE8084040F24331254801F0C1
S1131960E0B90728F6D8DFE800F0040B12192029A3
S1131970323B214B186C42400A4042401A6408BD75
S11319801D4B586C42400A4042405A64F7E71A4BD8
S1131990986C42400A4042409A64F0E7164BD86C77
S11319A042400A404240DA64E9E7134BD3F8CC00E2
S11319B042400A404240C3F8CC20E0E70E4BD3F843
S11319C0D00042400A404240C3F8D020D7E70A4B37
S11319D0D3F8D40042400A404240C3F8D420CEE7B2
S11319E0054BD3F8D80042400A404240C3F8D820FF
S11319F0C5E700BF4337000000A00840072804DD06
S1131A004FF45771254801F08CB9072844D8DFE812
S1131A1000F0040B12192029323B214B186D42406F
S1131A200A4042401A6570471D4B586D42400A40B7
S1131A3042405A6570471A4B986D42400A404240F2
S1131A409A657047164BD86D42400A404240DA65A9
S1131A507047134BD3F8B40042400A404240C3F8E5
S1131A60B42070470E4BD3F8B80042400A404240BD
S1131A70C3F8B82070470A4BD3F8BC0042400A4070
S1131A804240C3F8BC207047054BD3F8C000424025
S1131A900A404240C3F8C020704700BF43370000EB
S1131AA000A00840034A536823F4E013034353603F
S1131AB0704700BF00A0084010B5044618B957216C
S1131AC00F4801F02EF90F4AD2F8E430D2F8E010B2
S1131AD09B0003F03C03C1F381110B43A370D2F8C4
S1131AE0E03003F03F036370D2F8E830D2F8EC2022
S1131AF003F0F003C2F303121343237010BD00BFBD
S1131B007237000000FF0FE0024BD3F8FC00000E18
S1131B10704700BF0081E00F024BD3F8FC00C0F314
S1131B20074070470081E00FF8B507460C461D4694
S1131B3016464AB94FF4A171314801F0F2F824B1C4
S1131B40402D08D1062327E019B92E48FFF7E6FAFD
S1131B500446402D42D0402D09D87DB1202D17D008
S1131B6040F28911BDE8F840254801F0DAB8602D4B
S1131B70F6D1B6EB940F3CD804230DE0B6EB141F5A
S1131B8004D94FF4BA711E4801F0CBF8102303E0D6
S1131B90B6EBD40F1CD808235E43730803EB84030D
S1131BA0B3FBF6F3184E043BB6EB831F4FEA8314E2
S1131BB004D24FF4D071124801F0B3F83B683440BA
S1131BC023F060033B603B681D433D607C61F8BDCE
S1131BD040F279110A4801F0A4F8DCE70623B4FBCB
S1131BE0F3F3B342AED24FF4BF71054801F099F854
S1131BF0A8E740F28311024801F093F8BCE700BF64
S1131C00A437000040810400C0FF1F0010B51C4B26
S1131C100446984214D003F58063984210D003F52B
S1131C20806398420CD003F5C053984208D003F562
S1131C308063984204D040F24241124801F071F8A6
S1131C4040F6AA6341F20502E36000232360626068
S1131C5041F6F972A3606361E364A264084A6365B0
S1131C60944202D12365A36510BDA365064B9C4233
S1131C7003D003F580639C42F6D10023E365F3E7C8
S1131C8000C00040A437000000C4004038B5224B17
S1131C90044698420D4614D003F58063984210D050
S1131CA003F5806398420CD003F5C053984208D0E2
S1131CB003F58063984204D040F2FD21174801F0F7
S1131CC030F82046FFF7A2FFAB7C1BB1236843F03A
S1131CD080432360EB7C1BB12B7D43F01003A36591
S1131CE02A8A6B7B20461343EA89134363602B7B68
S1131CF0D5E90112FFF718FF6B7D1BB1236843F48C
S1131D0080332360AB7D1BB1236843F4004323601D
S1131D102B78E36038BD00BF00C00040A43700004A
S1131D2007B5064B18681B79009068468DF8043097
S1131D30FFF77CFC002003B05DF804FBD5370000FE
S1131D4007B5084B186801900748FEF70FFE01A875
S1131D50FFF7AEFA3220FFF729FB002003B05DF84D
S1131D6004FB00BFDA370000006CDC0210B56FF032
S1131D700403A0210A480B4C13F0800F03F1010265
S1131D8007D12344272A83F800131346F4D10020F3
S1131D9010BD03F00F03043B034419761346EBE72D
S1131DA000ED00E000E100E010B50446FEF7C8FDD8
S1131DB04FF47A729042B0FBF2F105D23621BDE8BD
S1131DC010400B4800F0ADBF0A4BB3FBF1F30A49D6
S1131DD0884201D93C21F2E702FB04F0B0FBF3F0A6
S1131DE0032804D9BDE810408008FEF779B910BD76
S1131DF0DE37000040420F00E7CD9A3B08B5064BA2
S1131E00044613B10021AFF30080044B1B6803B1F7
S1131E109847204600F089FF00000000941200203B
S1131E2038B5104B04461D682B6BB3B9182000F06D
S1131E3077F90246286320B946210B4B0B4800F082
S1131E4051F90B490B4BC0E900130B4B0021836084
S1131E500B2383810120C2E9040100222B6B1C6146
S1131E605A6138BD1C1000201938000030380000B9
S1131E700E33CDAB34126DE6ECDE0500164B10B517
S1131E801C68236BB3B9182000F04AF9024620639A
S1131E9020B95221114B124800F024F91149124B78
S1131EA0C0E90013114B002183600B2383810120BF
S1131EB0C2E90401216B0E480B694C6958430D4A71
S1131EC002FB0400A3FB0232013340EB0200C1E930
S1131ED0043020F0004010BD1C1000201938000010
S1131EE0303800000E33CDAB34126DE6ECDE050065
S1131EF02DF451582D7F954C002310B50446C0E9AC
S1131F000033C0E90433836081814366C281836105
S1131F10194608225C3000F07EFF0D4B2462636298
S1131F200C4BA3620C4BE3620C4B23630C4B9C42A3
S1131F3006D003F16802944202D0D0339C4205D10A
S1131F4004F15800BDE8104000F06DBF10BD00BFA3
S1131F50992F0000BB2F0000F32F00001730000062
S1131F605C110020024A0349034800F036BF00BF59
S1131F7010100020492F00002010002041680C4B55
S1131F8010B59942044601D000F0DEFFA168094B68
S1131F90994202D0204600F0D7FFE168064B9942EF
S1131FA004D02046BDE8104000F0CEBF10BD00BFF5
S1131FB05C110020C41100202C12002010B50B4B22
S1131FC00B4C0C4A20461A6004210022FFF794FFB0
S1131FD004F1680001220921FFF78EFF04F1D0000B
S1131FE00222BDE810401221FFF786BF94120020A0
S1131FF05C110020651F0000014800F015BF00BF00
S1132000B4120020014800F010BF00BFB412002039
S113201010B50446FFF7F0FF236A1BB1BDE810407A
S1132020FFF7F0BF044B2362044B1B68002BF5D170
S1132030FFF7C4FFF2E700BF7D1F000094120020E9
S1132040DFB54FF0FF364FF0FF370A4B044600224E
S113205069461868CDE9006700F00EF8002801DA37
S1132060CDE90067DDE900010CB1C4E9000104B069
S1132070D0BD00BF1C10002038B50023064D044617
S1132080084611462B6000F05EFE431C02D12B680B
S113209003B1236038BD00BFA012002070B5002634
S11320A00C4D0D4C641BA410A64209D101F038F963
S11320B000260A4D0A4C641BA410A64205D170BD2B
S11320C055F8043B98470136EEE755F8043B98472A
S11320D00136F2E7341100203411002034110020BD
S11320E0381100201FB514461A46094B05461B68D3
S11320F0D86854B9074B1C46CDE9013400912B46EE
S1132100054900F0BBF800F08AFF044BF4E700BF78
S11321101C100020CC3800009E38000091380000CC
S1132120024B0146186800F025B800BF1C100020BF
S113213070B50F4E0C463168054611B900F0E4F84D
S113214030602146284600F0DFF8431C03D14FF0ED
S1132150FF34204670BDC41C24F00304A042F8D010
S1132160211A284600F0D0F80130F2D1EFE700BF81
S1132170981200202DE9F041CD1C25F00305083507
S11321800C2D38BF0C25002D064601DBA94204D9CD
S11321900C2333600020BDE8F081314F00F062F879
S11321A03B681C4644BB29463046FFF7C1FF431C2D
S11321B0044650D13C682146002941D1002C44D02A
S11321C02368304604EB030800F09EF880453CD1B8
S11321D0216830466D1A2946FFF7AAFF013034D032
S11321E023682B4423603B68002B36D05A68A242F4
S11321F029D100225A600EE02268521B1DD40B2AFA
S113220016D96119A342256018BF5960636808BFD5
S1132210396062514B60304600F02AF804F10B003B
S1132220231D20F00700C21AB5D01B1AA350B2E731
S1132230A3426268DED13A60EDE723466468B1E701
S11322400C464968B8E71346CEE70C2330463360A2
S113225000F00EF89EE70560DDE75B60FFDE00BF7F
S11322609C120020014800F0DFBD00BFB312002023
S1132270014800F0DABD00BFB31200200EB403B56C
S1132280014603AB054853F8042B0068019300F0A2
S1132290A5F802B05DF804EB03B070471C100020F1
S11322A038B50023054D044608462B6000F03AFD7E
S11322B0431C02D12B6803B1236038BDA012002057
S11322C038B50446084611460022054D2A601A46D0
S11322D000F035FD431C02D12B6803B1236038BDE7
S11322E0A012002038B50446084611460022054DC8
S11322F02A601A4600F025FD431C02D12B6803B165
S1132300236038BDA012002038B50023054D0446D3
S113231008462B60FEF746FB431C02D12B6803B131
S1132320236038BDA012002038B504460846114683
S11323300022054D2A601A46FEF7A8F8431C02D174
S11323402B6803B1236038BDA012002038B50546C0
S1132350002940D051F8043C0C1F002BB8BFE418EE
S1132360FFF780FF1C4A136833B963601460284682
S1132370BDE83840FFF77CBFA34208D92068211884
S11323808B4201BF19685B6809182160EDE71A46A2
S11323905B680BB1A342FAD911685018A0420BD163
S11323A020680144501883421160E0D118685B68CA
S11323B0084410605360DAE702D90C232B60D6E797
S11323C0206821188B4201BF19685B6809182160D5
S11323D063605460CBE738BD9C1200202DE9F04FB8
S11323E00D461446984606469DB018B1036A0BB9CB
S11323F0FFF70EFE6B6ED90705D4AB899A0502D49C
S1132400A86D00F011FDAB891B0701D52B699BB9A1
S11324102946304600F026FA70B16B6EDC0704D50D
S11324204FF0FF301DB0BDE8F08FAB899805F7D4AD
S1132430A86D00F0FAFCF3E70023099320238DF83C
S1132440293030234FF00109CDF80C80DFF8A88142
S11324508DF82A3023469A4613F8012B0AB1252A0F
S1132460F9D1BAEB040B0BD05B4622462946304621
S113247000F0F1FD013000F0A780099A5A44099256
S11324809AF80030002B00F09F8000234FF0FF32B9
S1132490CDE905230AF1010A049307938DF853301B
S11324A01A935446052214F8011B534800F020FFE8
S11324B0049AD8B9D10644BF20238DF853301307AA
S11324C044BF2B238DF853309AF800302A2B15D0B3
S11324D0544600204FF00A0C079A214611F8013B9C
S11324E0303B092B4BD9B0B1079214E0A0EB0803A1
S11324F009FA03F31343A2460493D2E7039B191D7D
S11325001B680391002BBBBF5B4242F0020207939E
S11325100793B8BF049223782E2B0AD163782A2B11
S113252032D1039B02341A1D1B68039243EAE373FE
S11325300593DFF8C8A003225046217800F0D8FEA6
S113254038B14022049BA0EB0A00824013430134BB
S1132550049314F8011B062229488DF8281000F072
S1132560C7FE00283FD0274B1BBB039B073323F038
S1132570070308330393099B3B4409936AE70C461A
S113258001200CFB0232A8E700234FF00A0C194685
S113259001340593204610F8012B303A092A03D957
S11325A0002BC6D00591C4E7044601230CFB01218E
S11325B0F0E703AB00932A463046134B04A9AFF36C
S11325C000800746781CD6D16B6ED90705D4AB8939
S11325D09A0502D4A86D00F028FCAB895B063FF590
S11325E01FAF09981EE703AB00932A463046064BFB
S11325F004A900F00BF8E4E7CD380000D33800005C
S1132600D738000000000000573000002DE9FF47D4
S11326100F7E9146782F80460C469A460C9E01F117
S1132620430207D8622F0AD8002F00F0DD80582F0C
S113263000F0C38004F1420684F842703AE0A7F146
S11326406303152BF6D801A151F823F0A526000049
S1132650B926000035260000352600003526000086
S113266035260000B9260000352600003526000076
S11326703526000035260000CF270000472700003C
S1132680872700003526000035260000F1270000CA
S113269035260000472700003526000035260000B7
S11326A08F27000033681A1D1B68326004F142064C
S11326B084F842300123A8E031682368081D3060A3
S11326C01E0601D50D6803E05D06FBD5B1F9005087
S11326D0002D616878DA2D20002984F84300A16078
S11326E02DDA0A235D486D421646B5FBF3F103FB70
S11326F01157C75D06F8017D2F46BB420D46F4D93C
S1132700082B0BD12368DF0708D523696168994238
S1132710DEBF302306F8013C06F1FF36921B22612E
S11327204B4621464046CDF800A003AA00F0A5FC84
S113273001306FD14FF0FF3004B0BDE8F08723F0D3
S113274004032360CDE721683368080653F8045B6B
S113275002D4490648BFADB26F2F336014BF0A23B9
S113276008233E48002184F843106668002EA660C2
S1132770BADB216821F004012160002DB4D1002EC0
S1132780B2D11646BCE7236843F0200323607827C0
S1132790334884F84570236831681F0651F8045B98
S11327A002D45F0648BFADB23160D90744BF43F0DD
S11327B0200323601DB11023D4E72848E9E72368E8
S11327C023F020032360F6E70A232448CDE7336887
S11327D02568181D616930602E061B6801D51960D3
S11327E002E06806FBD5198000231646236197E7AB
S11327F0336800211A1D32601E686268304600F09A
S113280077FD08B1801B606063682361002384F84E
S1132810433085E73246494640462369D047013074
S113282088D023689B0714D4E068039B9842B8BF00
S1132830184681E70123324649464046D0470130D5
S11328403FF478AF0135E36803995B1AAB42F1DCDE
S1132850EAE7002504F11906F5E700BFDE380000B9
S1132860EF38000038B5294B054618680C4618B1F6
S1132870036A0BB9FFF7CCFBB4F90C30190722D467
S1132880DA0607D409222A6043F040034FF0FF30F0
S1132890A38133E0580712D5616B41B104F14403BD
S11328A0994202D02846FFF751FD00236363A389B0
S11328B023F02403A3810023636023692360A38995
S11328C043F00803A38123694BB9A38903F420735C
S11328D0B3F5007F03D02146284600F0A3FCB4F9E9
S11328E00C3013F001020AD00022A2606269524245
S11328F0A261226942B913F08000C5D138BD99079D
S113290058BF6269A260F4E70020F7E71C100020BA
S113291038B50023064D0446084611462B6000F0E6
S113292005FA431C02D12B6803B1236038BD00BFF4
S1132930A012002038B50023054D044608462B603C
S113294000F0F8F9431C02D12B6803B1236038BDB1
S1132950A0120020024B0146186800F09FBC00BF83
S11329601C10002038B50023064D044608461146C5
S11329702B6000F0E1F9431C02D12B6803B1236002
S113298038BD00BFA01200207047704770B5E4B096
S113299001230446D0F8985100F108069D4207DC53
S11329A063681B78032B4CD8DFE803F09A0B62436F
S11329B006EBC30204EBC30103C9013382E803003D
S11329C0ECE723681B78012B12D0022B17D0002BC5
S11329D037D1D4E90232062B28D132F0040218BFD1
S11329E00523E360E368002B40F09880032313E0A1
S11329F0A368062B0CBF00230133A36021E0D4E9B4
S1132A000232062B0AD132F0040208BF0523E36028
S1132A10E368042B05D10123E36012E00133A360D2
S1132A20F6E7A268062A0CD00133F5E70133A36068
S1132A30D8E723681B78022B16D0032B0ED0002B6B
S1132A40D0D004F110014FF4C672684600F0EEF9DC
S1132A5094E80F00FDF7E4FB64B070BDA3680BB904
S1132A600623CAE7013BC8E7E368042BDCD1D2E7BD
S1132A7023681B78022B27D0032B11D0012BE0D124
S1132A80D4E90223062ACFD1052B03D10023A36066
S1132A900223C1E7062BC7D10023A3600423BBE7AD
S1132AA0D4E902233AB9012B01D10623EFE7032B22
S1132AB007D10623F1E7062A03D1062BEED0052B16
S1132AC0E6D0013AA260AFE7D4E90223062A17D17F
S1132AD0052B01D106239FE7062B11D105239BE784
S1132AE023681B78012B0ED0032B19D0002BA8D1FF
S1132AF0D4E90223062A03D1062BEFD0052BE9D013
S1132B00012B88D172E7D4E90223062A06D1052BCA
S1132B1002D10023A3607FE7062BB7D0013B7BE7FC
S1132B20D4E902233AB9012B03D10623C4E90232C2
S1132B3087E7032BB9D0013AA260EFE7F8B5044662
S1132B4000200D46FFF77CFAFFF76AF9FFF796F9C4
S1132B500646FFF793F9072396FBF3F290FBF3F392
S1132B60C2EBC202B61A266000272E46C3EBC3038B
S1132B70C01A6060D5F89831BB4200DAF8BDB2687B
S1132B8023689A4207D1F26863689A4203D12946BE
S1132B902046FFF7D3FFB36822680133934208D17C
S1132BA0F36862680133934203D129462046FFF754
S1132BB0C5FF01370836DDE770B5E6B00023C1E98B
S1132BC004338B600123C1F8983102230C46154667
S1132BD04FF4C6761046CB60FFF7B0FF95E80300CC
S1132BE063AB04F1100583E80300324629466846C6
S1132BF000F01CF994E80F00FDF712FB3246294659
S1132C00684600F013F994E80F0000F005F866B088
S1132C10BDE87040FDF7ECBA84B08DE80F0066980B
S1132C2004B0FDF7F9BC2DE9F041ADF5507D00F09D
S1132C30B8F8FFF7A9FEFDF77FFB01230DF5CD756D
S1132C400DF29B1769AC002067AE2B703B70C4E992
S1132C500057FDF78BFC324621462846FFF7ACFFB0
S1132C600DF5C67800F0AAF8FFF78FFE394628461E
S1132C70FDF7C0FB2046FFF789FE96E803004FF4FA
S1132C80C67288E803006DA9684600F0CFF894E89E
S1132C900F00FDF7C5FA6DA94FF4C672684600F03F
S1132CA0C5F894E80F00FFF7B7FFFDF7A1FAD9E7DD
S1132CB008B5002278210120FEF7A0FE0022782129
S1132CC00220FEF79BFE002278210320FEF796FEE9
S1132CD0002278210420FEF791FE002278210520AD
S1132CE0FEF78CFE002278210620FEF787FEBDE861
S1132CF00840002278210720FEF780BE7047704705
S1132D0000F006B8704770477047704770477047C7
S1132D100F207047FEE74FF4004070474FF47A707D
S1132D207047FEE74FF0FF307047FEE70020704722
S1132D3001207047012070474FF0FF30704700209A
S1132D4070470020704700207047EFF3108072B680
S1132D50704700B962B6704770B5054614460E4612
S1132D60FFF7F3FF2B685C4034405C402C60BDE807
S1132D707040FFF7EEBF03695B06FCD54163704703
S1132D8013B54FF44073002401A8ADF804308DF856
S1132D900640FEF7CDFA3220FEF702FB204602B0D1
S1132DA010BD08B5FDF7EEFCFFF7A9FFFFF7A8FF7C
S1132DB0FFF7A8FFBDE80840FFF7A5BF08B5FFF778
S1132DC0A3FFFFF7A2FFFFF7A1FFBDE80840FFF74D
S1132DD09EBF0028B8BF404270472DE9F84307461C
S1132DE0884614460026D4E90195B9F1010905D5B0
S1132DF02468002CF7D13046BDE8F883AB89012B59
S1132E0007D9B5F90E30013303D029463846C047F7
S1132E1006436835E9E703460244934200D170470C
S1132E2003F8011BF9E77047704770470A44914261
S1132E3000F1FF3300D1704710B511F8014B9142F6
S1132E4003F8014FF9D110BDB1F90C20F8B51707FB
S1132E5005460C4656D44B68002B02DC0B6C002B49
S1132E603DDDE66A002E3AD0002312F480522F682A
S1132E70216A2B6025D0626DA389580705D5636844
S1132E80D21A636B0BB1236CD21A216A0023284631
S1132E90E66AB047411C24D00023636023692360A1
S1132EA0A389DA0400D56065616B2F60B9B104F1C0
S1132EB04403994202D02846FFF748FA002363638B
S1132EC00DE001232846B047461C0246D4D12B68A6
S1132ED0002BD1D01D2B01D0162B2AD12F6000201E
S1132EE02EE02A68B4F90C3042B11D2A01D0162A0A
S1132EF021D10023636023692360D5E762602269DE
S1132F002260CEE70F69002FE9D0930718BF002392
S1132F100E6808BF4B69F61B0F608B60002EDEDD68
S1132F2033463A462846216AD4F828C0E0470028A8
S1132F3007DCB4F90C304FF0FF3043F04003A381B9
S1132F40F8BD0744361AE9E738B50B6905460C465F
S1132F5013B90025284638BD18B1036A0BB9FFF729
S1132F6057F8B4F90C30002BF3D0626ED00704D4B8
S1132F70990502D4A06DFFF757FF28462146FFF7B5
S1132F8063FF636E0546DA07E4D4A3899B05E1D4A5
S1132F90A06DFFF74AFFDDE710B50C46B1F90E103E
S1132FA0FFF7A0F90028ABBF636DA3891B1823F4B6
S1132FB08053ACBF6365A38110BD2DE9F0411F466A
S1132FC08B890546DB050C46164605D502230022EF
S1132FD0B1F90E10FFF774F9A389324623F4805334
S1132FE0A38128463B46B4F90E10BDE8F041FFF733
S1132FF09BB910B50C46B1F90E10FFF761F9431CEB
S1133000A38915BF606523F4805343F48053A381DF
S113301018BFA38110BDB1F90E10FFF741B9062006
S113302008B5FFF797FC0120FFF77FFE936810B403
S1133030013B002B936007DA9469A34201DB0A2960
S113304002D110BC00F08BB81368581C10601970C2
S1133050084610BC7047F8B506460F461446D51806
S1133060AC4201D1002007E03A46304614F8011B77
S1133070FFF7DCFF431CF3D1F8BD2DE9F0471646FA
S113308098468A680B6907469342B8BF1346336073
S113309091F843200C46DDF820900AB101333360E7
S11330A02368990642BF336802333360256815F0FC
S11330B0060506D104F1190AE36832689B1AAB428B
S11330C02BDC94F843302268003B18BF012392069E
S11330D030D44146384604F14302C847013023D076
S11330E02368226903F00603042B14BF0025336808
S11330F04FF0000608BFE56804F11A0408BFED1A92
S113310054F8123C08BF25EAE5759342C4BF9B1AE4
S1133110ED18B5421AD1002008E001235246414679
S11331203846C847013003D14FF0FF30BDE8F0877F
S11331300135C1E73020E11881F843005A1C94F8A6
S113314045102244023382F84310C2E70123224689
S113315041463846C8470130E6D00136D9E7F8B5CC
S11331600E461446054618B1036A0BB9FEF750FF24
S1133170A369A360A3891A0701D5236943B921462A
S11331802846FFF76FFB18B14FF0FF373846F8BDFC
S113319023682269F6B2981A63693746834205DCCC
S11331A021462846FFF7D0FE0028EDD1A368013B55
S11331B0A36023685A1C22601E706269431C9A42F1
S11331C004D0A389DB07E1D50A2EDFD121462846A6
S11331D0FFF7BAFE0028D9D0D6E770B50C46B1F98E
S11331E00E10154600291E4696B00CDAA38900215C
S11331F013F0800F14BF40234FF48063002031602C
S11332002B6016B070BD6A46FFF782FB0028EDDB29
S1133210019901F47041A1F50053594259414FF409
S11332208063EBE78B89F7B59D0706460C4607D507
S113323004F14703236023610123636103B0F0BDFC
S11332406A4601ABFFF7C9FF009F05463946304681
S1133250FEF790FF48B9B4F90C309A05EED423F088
S1133260030343F00203A381E2E7A389C4E904074B
S113327043F08003A381019B20605BB13046B4F925
S11332800E10FFF757FB28B1A38923F0030343F083
S11332900103A381A3891D43A581CFE71F2938B565
S11332A005460C4604D9162303604FF0FF3038BDA1
S11332B0C26B12B152F821304BB9284600F016F80F
S11332C0224601462846BDE83840FFF74BBB012B98
S11332D00AD0591C03D1162303600120E7E700211B
S11332E0204642F8241098470020E0E7FFF720BD6D
S11332F0034610B5C9B202449342184601D10020D6
S113330003E0047801338C42F6D110BD00000000C4
S113331000000000000000000000000000000000A9
S1133320F8B500BFF8BC08BC9E467047F8B500BFAE
S1133330F8BC08BC9E467047000000000000000076
S11333400000000000000000000000000000000079
S11333500000000000000000000000000000000069
S1133360050000000000000000C20100000500008C
S113337000100000000000000100000003004000F5
S11333800C00000000000000000000003F000600E8
S11333905B004F0066006D007D0007007F006F003A
S11333A077007C0039005E00790071004000010163
S11333B00507070304020302040605060D0E0E0E9C
S11333C00D0D0D0D0E0E0E0E0D0D0101050707035B
S11333D004020302040605060F1010100F0F0F0F4E
S11333E0101010100F0F0101050707030402030258
S11333F004060506111212121111111112121212E1
S1133400111101010507070304020302040605065E
S1133410131C1C1C131313131C1C1C1C131300015E
S11334200507060203010302040604051D1E1E1EF1
S11334301D1D1D1D1E1E1E1E1D1D0001050706024D
S113344003010302040604051F2020201F1F1F1F61
S1133450202020201F1F0101050707030402030287
S113346004060506212222222121212122222222B0
S113347021210705020103060423232323232323F5
S11334800705020103060424242424242424070514
S11334900201030604252525252525250705020106
S11334A003060426262626262626000107020627CA
S11334B02727272700000000000000001312111026
S11334C00F0E0D0C00000000212524260101030429
S11334D0040203020D0E0D0D0E0D0E0E0101030468
S11334E0040203020F100F0F100F10100101030448
S11334F00402030211121111121112120101030428
S113350004020302131C13131C131C1C00010203EA
S1133510040103021D1E1D1D1E1D1E1E00010203AB
S1133520040103021F201F1F201F20200101030488
S11335300402030221222121222122220507070459
S1133540040605060E0E0D0D0E0E0D0D05070704DF
S11335500406050610100F0F10100F0F05070704BF
S1133560040605061212111112121111050707049F
S1133570040605061C1C13131C1C13130507060361
S1133580040604051E1E1D1D1E1E1D1D0507060323
S11335900406040520201F1F20201F1F0507070401
S11335A00406050622222121222221212F5573659A
S11335B072732F67657267656C7974616D61737975
S11335C02F446F63756D656E74732F62737A665FD3
S11335D068617A692F736E616B652F6765636B6FC2
S11335E05F73646B5F342E342E342F706C61746699
S11335F06F726D2F656D6C69622F696E632F656DD7
S11336005F636D752E68002E2E2F6765636B6F5F89
S113361073646B5F342E342E342F706C6174666F58
S1133620726D2F656D6C69622F7372632F656D5FA8
S1133630636D752E63000002800008000200200004
S11336400001400004000100100009070301052FD8
S113365055736572732F67657267656C7974616DF4
S11336606173792F446F63756D656E74732F627324
S11336707A665F68617A692F736E616B652F67651F
S1133680636B6F5F73646B5F342E342E342F706CF6
S11336906174666F726D2F656D6C69622F696E63FC
S11336A02F656D5F6770696F2E68002E2E2F67651A
S11336B0636B6F5F73646B5F342E342E342F706CC6
S11336C06174666F726D2F656D6C69622F737263BE
S11336D02F656D5F6770696F2E630000FFFFFFFF4A
S11336E0FFFFFFFFFFFFFF1F2F55736572732F67E7
S11336F0657267656C7974616D6173792F446F636A
S1133700756D656E74732F62737A665F68617A692A
S11337102F736E616B652F6765636B6F5F73646B8B
S11337205F342E342E342F706C6174666F726D2F7B
S1133730656D6C69622F696E632F656D5F62757369
S11337402E68002E2E2F6765636B6F5F73646B5F4B
S1133750342E342E342F706C6174666F726D2F6545
S11337606D6C69622F7372632F656D5F6C63642E79
S113377063002E2E2F6765636B6F5F73646B5F341A
S11337802E342E342F706C6174666F726D2F656DDC
S11337906C69622F7372632F656D5F7379737465DF
S11337A06D2E63002E2E2F6765636B6F5F73646BE2
S11337B05F342E342E342F706C6174666F726D2FEB
S11337C0656D6C69622F7372632F656D5F757361CC
S11337D072742E63000000000101030300002E2E0A
S11337E02F6765636B6F5F73646B5F342E342E34A5
S11337F02F706C6174666F726D2F73657276696376
S1133800652F7564656C61792F7372632F736C5FB8
S11338107564656C61792E63005245454E54206D84
S1133820616C6C6F632073756363656564656400C4
S11338302F566F6C756D65732F646174612F6A65A3
S11338406E6B696E732F776F726B73706163652F24
S1133850474E552D746F6F6C636861696E2F61728A
S11338606D2D31322F7372632F6E65776C69622D03
S113387063796777696E2F6E65776C69622F6C69FF
S113388062632F7374646C69622F72616E642E6359
S1133890002C2066756E6374696F6E3A2000617344
S11338A073657274696F6E202225732220666169C4
S11338B06C65643A2066696C6520222573222C208D
S11338C06C696E65202564257325730A00232D30E9
S11338D02B2000686C4C0065666745464700303114
S11338E03233343536373839414243444546003063
S11338F03132333435363738396162636465660092
S10B390074C8FF7F0100000000
S10F390814390000001000204F000000E3
S1133914809FD50000800000006CDC02B8120020F7
S113392400000000030000005C11002020100020AF
S1133934000000005C110020C41100202C1200209F
S1133944000000000000000000000000000000006F
S1133954000000000000000000000000000000005F
S1133964000000000000000000000000000000004F
S1133974000000000000000000000000FFFFFFFF43
S113398401010507070304020302040605060D0EDC
S11339940E0E0D0D0D0D0E0E0E0E0D0D010105076F
S11339A4070304020302040605060F1010100F0F88
S11339B40F0F101010100F0F010105070703040265
S11339C40302040605061112121211111111121226
S11339D4121211110101050707030402030204066C
S11339E40506131C1C1C131313131C1C1C1C13137B
S11339F400010507060203010302040604051D1E53
S1133A041E1E1D1D1D1D1E1E1E1E1D1D000105073F
S1133A14060203010302040604051F2020201F1FBD
S1133A241F1F202020201F1F010105070703040274
S1133A340302040605062122222221212121222215
S10F3A4422222121510100002901000070
S9030811E3
