S00C0000736E616B652E733337D6
S113000000100020A10300001112000011120000D2
S11300101112000011120000111200001112000050
S11300201112000011120000111200001112000040
S11300301112000011120000111200001112000030
S11300401112000011120000111200001112000020
S11300501112000011120000111200001112000010
S11300601112000011120000111200001112000000
S113007011120000111200001112000011120000F0
S113008011120000111200001112000011120000E0
S11300907D02000011120000111200001112000074
S11300A011120000111200001112000011120000C0
S11300B011120000111200001112000011120000B0
S11300C011120000111200001112000011120000A0
S11300D01112000011120000111200000348044B19
S11300E0834202D0034B03B1184770471810002015
S11300F018100020000000000548064B1B1AD90FF9
S113010001EBA301491002D0034B03B11847704718
S113011018100020181000200000000010B5064C34
S1130120237843B9FFF7DAFF044B13B10448AFF364
S113013000800123237010BD3C100020000000004B
S11301406814000008B5054B1BB105490548AFF319
S11301500080BDE80840FFF7CFBF00BF00000000EB
S11301601810002068140000A3F5803A704700BFFF
S1130170174B002B08BF134B9D46FFF7F5FF0021DB
S11301808B460F461348144A121A01F08EF80E4B90
S1130190002B00D098470D4B002B00D0984700202F
S11301A0002104000D000D48002802D00C48AFF3D4
S11301B0008000F0EDFF2000290001F00FF800F0AE
S11301C0D5FF00BF00000800000000000000000090
S11301D00010002018100020401000200000000033
S11301E00000000030B587B06C461F4A0721536CED
S11301F0052043F4005353641C4D0123042200F0F2
S1130200F5FD01211A4800F0FDFA0FCD0FC495E861
S1130210030084E80300174C6946204600F018FFE9
S1130220042201231046002100F0E0FD01220023F6
S11302301146042000F0DAFD636D4FF4801243F49C
S113024080736365636D43F00303636541F6F9737B
S1130250A364E36C43F00403E364074BC3F8802115
S11302601A6007B030BD00BF00800C4000130000CE
S11302700032040000E0004000E100E00122054BF0
S113028005491A60054AD369DBB20B6041F6F9737C
S113029093647047341000203010002000E00040C8
S11302A0054B1A683AB100221A60044B04481968D5
S11302B0C9B200F0CCBF70473410002030100020C9
S11302C000E0004010B500F00FFD01210F4800F0E0
S11302D099FA01220020114600F0DAFC01220C4CAC
S11302E01146A36A002023F4803323F0030343F070
S11302F00203A36200F0CCFCA36A002023F4801361
S113030023F00C0343F00803A36210BDD0433E0066
S113031000800C4013B50122164B1A6400F0D6FD80
S1130320044601A800F0AAFD0F2C12D99DF8043050
S1130330022B0ED99DF80520022A01D1042B08D0E6
S11303400D4AD2F8C03023F0500343F01003C2F832
S1130350C03000F0EDFE00F01DF800F07DFF00F06D
S1130360D1FEFFF7AFFF00F0BDFE02B0BDE81040C4
S113037000F004B800000C4000800C4008B50121D6
S1130380034800F03FFABDE8084000F035BF00BF65
S113039000D204000121014800F034BA00D2040064
S11303A008B500F0B9F8124B12498B4212D3002061
S11303B0114B12498B4218D3FFF7DAFE186850F834
S11303C02240586840F82240013298688242F5D3AE
S11303D00C33EAE70022F8E71C6844F822000132F3
S11303E05C68A242F8D30833E4E70022F8E700BFD0
S11303F0701400007C1400007C1400007C140000C5
S113040000487047006CDC02254AD36A03F4705339
S1130410B3F5805F3AD0B3F5005F04D0B3F5006F55
S11304200BD1204B00E0204B1B681D4A1068C0F321
S113043082300130B3FBF0F07047D36803F4E0631B
S1130440B3F5407F25D008D8B3F5807F0ED0B3F53F
S1130450007F20D0A3B10023E7E7B3F5806F1CD061
S1130460B3F5A06F114B18BF0023DEE7104B114A00
S1130470D3F8FC10104BB1F1985F28BF1346D4E7B2
S11304800B4B0E4AD3F8FC100D4BF4E74FF400432A
S1130490CBE70C4BC9E70C4BC7E70C4BC5E700BFD8
S11304A000800C400810002004100020003FAB0125
S11304B00081E00F40B56400C0CF6A00804F120095
S11304C040420F00809FD500C0D8A700406F400174
S11304D008B5FFF799FF044B5B6803F00F03D8409E
S11304E0024B186008BD00BF00800C4000100020C3
S11304F0014B1868704700BF08100020044B1860B7
S1130500044BDB6A1B0501D5FFF7E2BF704700BF50
S11305100810002000800C40014A024B9A6070478A
S11305200000000000ED00E0014B1868704700BFB8
S11305300410002008B5194B5B6903F4E063B3F5BC
S1130540407F16D00DD8B3F5807F20D0B3F5007F5F
S113055018D0F3B141F29C61114800F060FE002311
S11305600EE0B3F5C06F16D0B3F5E06FF2D10D4BCA
S113057006E000F0ABFC0C4B0C4A122888BF134673
S1130580184608BD00F0A2FC094B0A4AF5E70A4BDD
S1130590F6E70A4BF4E70A4BF2E700BF00800C4091
S11305A018130000406F400140420F00804F1200BA
S11305B0C0CF6A0040B56400C0D8A700809FD500B2
S11305C0003FAB01034B5A6DD20702D41A6D10429F
S11305D0FCD1704700800C4008B500F07FFC4A282D
S11305E005D0792803D0482818D1104815E01049BF
S11305F00E48D1F8E030D1F8E820D1F8EC101B0215
S113060003F47C53C1F3031102F0F0020B431343D0
S1130610084AB3F5017F28BF104608BD064841F2D9
S1130620186100F0FCFD0020F7E700BF0048E80176
S113063000FF0FE000366E011813000010B50446E9
S1130640FFF7CAFFA04207D2FFF7C6FFB4EB400F83
S11306500ED80122012301E00022134605498B67CD
S113066005494B6823F4807343EA02234B6010BDB1
S11306700222EFE70000904300800C40144B5A68BC
S11306806FF0130302F00702134113F0010F114B33
S113069009D1984217D8104B104A034493422CBFF7
S11306A00023012308E098420FD80B4B0B4A034464
S11306B0934234BF0323022305494A6822F0070208
S11306C013434B6070470423F6E70523F4E700BFA8
S11306D000000C400048E801FFDB0BFF0024F4009D
S11306E038B541F67133064CE56BE363FFF788FEDA
S11306F0ADB2FFF7C3FF0DB10023E36338BD00BF04
S113070000000C4038B541F67133054CE56BE363EA
S1130710ADB2FFF7B3FF0DB10023E36338BD00BFF3
S113072000000C4008B5C0F30313013B0C2B5AD84E
S1130730DFE803F00759590D5959141D4759595900
S113074017002A4B1868C0F38230013008BD274BCC
S11307509B6803F00F0301209840F7E7234B5B6885
S1130760F7E7224B5B68C3F300230133F3E7204B25
S1130770984220D00DD81F4B984212D003F5822303
S1130780984213D041F62F411B4800F048FD012048
S1130790DCE71A4B9842F5D1144B9B6E03F003032C
S11307A0D9E7124B9B6EC3F30313D4E70F4B9B6E35
S11307B0C3F30323CFE70D4B9B6EC3F30133043321
S11307C0C9E70F4B984206D003F50433984205D08D
S11307D041F64841D8E7054B1B6FDFE7034B1B6F1E
S11307E0C3F30113B7E741F64F41CDE700800C4056
S11307F080002A00801612001813000080062E00C4
S113080090071A0070B5C0F30323013B04460E465B
S1130810092B16D8DFE803F0302C05151527201511
S1130820151CFFF755FEFFF709FF154DC4F30434FB
S113083005F1424505F5801504EBC504A4002660C6
S113084070BD41F6B051BDE870400E4800F0E7BC01
S11308500D4DC0F30434EBE7C0F3043410200B4D0A
S1130860FFF7B0FEE4E7C0F30434094D0120F7E7D5
S1130870084DC0F30434DBE7074DC0F30434D7E775
S113088040800C401813000078800C4060800C40BD
S113089058800C4044800C4008800C4008B500F09F
S11308A00F00013806284CD8DFE800F00414254B6B
S11308B04B333B00294BDB6A03F47053B3F5805F81
S11308C04AD0B3F5005F45D0B3F5006F0CBF0420E8
S11308D0052008BD214B986A00F003000228F8D0D7
S11308E0032835D0012837D09B6A13F4803F0CBF0E
S11308F001200A20EDE7194A936A03F00C03082B40
S113090028D00C2B24D0042B26D0936A13F4801FF8
S1130910EDE7124B1B6813F0805F0CBF0720092022
S1130920D7E70E4BDB6A03F46033B3F5803F11D095
S1130930B3F5003F10D0B3F5004F0CBF09200120E0
S1130940C7E7074842F2013100F069FC0020C0E724
S11309500620BEE70220BCE70320BAE700800C4073
S11309601813000010B52B4B0446984223D02A4B91
S1130970984213D041F61311284800F050FC204649
S1130980FFF78CFF044641F64211244800F047FC6F
S1130990032C37D8DFE804F03B1C2024FFF77EFF4C
S11309A01F4A936AC3F38103013B022B27D8DFE874
S11309B003F00F131700FFF771FF194A936A03F04E
S11309C00303013B022B12D8DFE803F002060A00FE
S11309D0BDE8104000F01DBCBDE81040FFF7A4BD09
S11309E0FFF776FD0F4B9B6F0133D84010BD936A20
S11309F01022D3400BD0BDE8104000F00DBC936A28
S1130A001422F6E741F66D11044800F008FC0020BA
S1130A10ECE700BF02001E000300200018130000D2
S1130A2000800C400000904338B500F47813B3F50F
S1130A30E01F054600F087802ED8B3F5801F00F034
S1130A40918018D8B3F5802F50D006D87BB1B3F578
S1130A50003F53D04FF4F7517FE0B3F5602FF9D145
S1130A605048FFF71BFF07287CD0092873D1BDE845
S1130A703840FFF7C9BCB3F5B01F43D0B3F5D01F5E
S1130A805BD0B3F5901FE5D14748FFF76BFF474BA9
S1130A909B6EC3F303132FE0B3F5281F3AD00DD890
S1130AA0B3F5001F47D0B3F5181F5FD0B3F5F01F9F
S1130AB0D0D13D48BDE83840FFF754BFB3F5381FE7
S1130AC031D0B3F5781F63D0B3F5301FC2D13648A7
S1130AD0FFF748FF354A936EC3F30133D840D36F11
S1130AE003F007030133B0FBF3F038BDFFF78CFCD0
S1130AF02E4B9B6803F00F03D840F6E7BDE838405F
S1130B00FFF7E6BC2848FFF72DFF284B9B6EC3F385
S1130B100323F1E72448FFF725FF244B9B6EC3F31F
S1130B2001330433E8E72048FFF71CFF1F4B9B6E9B
S1130B3003F00303E0E71E48BCE71D48FFF712FF7C
S1130B401A4B1B6FF4E71A48FFF70CFF174B1B6F88
S1130B50C3F30113D0E741F2D661164800F05FFBFE
S1130B600020C2E7BDE83840FFF7E4BC1248FFF7B5
S1130B7095FE032808D009283FF479AF0228EFD165
S1130B80BDE83840FFF7D0BCBDE8384000F041BBB9
S1130B90FFF79EFC04462846FFF7C4FDB4FBF0F0C3
S1130BA0A3E700BF06000E0002001E0000800C40F8
S1130BB003002000181300000723260010B5044684
S1130BC01120FFF76BFE042804D142F673210C4870
S1130BD000F025FB08230B4A13621368E17823F421
S1130BE0D16323F007030B43617843EA412321785F
S1130BF043EA8103A17843EAC113136010BD00BF27
S1130C001813000000800C4070B505461120FFF752
S1130C1045FE022804D142F62B31144800F0FFFAB5
S1130C204FF40073124E3362AC786B78E40244EAFA
S1130C3083442B78C3F3400344EA433400F0F1FACD
S1130C4033685C4024F07F4424F4730424F4474460
S1130C5024F0FF045C40346000F0E7FA2B78054A86
S1130C6003F00103C2F8A03470BD00BF18130000E4
S1130C7000800C4000008C43014B1880704700BF7B
S1130C800E100020014B1880704700BF0C1000208C
S1130C9030B404280BD80E4B1C5C0E4B33F81050A8
S1130CA00D4B33F810000D4B39B918620DE042F6C4
S1130CB0F93130BC0A4800F0B2BA1D622AB1094BBE
S1130CC023449B001A68002AFCD030BC704700BF44
S1130CD05C130000521300004813000000800C4015
S1130CE0181300006001E41008B5FFF775FC01302B
S1130CF0FFF7A4FCFFF7FCFB104A114B9842136862
S1130D004FF0020096BF23F0600343F0600343F00A
S1130D102003136001221146FFF7BAFFFFF7E0FC3E
S1130D200222064B5A62FFF7D3FBFFF787FCFFF75B
S1130D30CFFBBDE808400021FFF7E4BC00800C4075
S1130D400048E80110B504798378094923430478FD
S1130D50CA6A43EA0443C478407822F4803243EAFE
S1130D60440322F01F0243EA00131343CB6210BD75
S1130D7000600C4038B5052804460D4605D80A4BDA
S1130D8033F81030CB40DB0704D440F22D41074840
S1130D9000F045FA24220123544304F18044AB407B
S1130DA004F5C044236138BDEE1300006113000054
S1130DB038B5052804460D4605D80A4B33F81030DB
S1130DC0CB40DB0704D440F2FE31074800F027FA99
S1130DD024220123544304F18044AB4004F5C0446D
S1130DE0636138BDEE13000061130000F8B50528F7
S1130DF005460C4616461F4605D81C4B33F81030E2
S1130E00CB40DB0704D44FF4B071194800F007FA63
S1130E1026B121462846C7B1FFF7ACFF2423072C8F
S1130E204FF00F0105FB03F312D8A00006FA00F2FD
S1130E3081401048184400F0FBF9AEB92146284619
S1130E4077B1BDE8F840FFF795BFFFF7B1FFE5E7DD
S1130E50A4F10800800006FA00F281400648E9E7A0
S1130E60BDE8F840FFF7A4BFF8BD00BFEE130000D3
S1130E70BD130000046000400860004010B5044643
S1130E8018B957210F4800F0CAF90F4AD2F8E430D4
S1130E90D2F8E0109B0003F03C03C1F381110B4333
S1130EA0A370D2F8E03003F03F036370D2F8E83067
S1130EB0D2F8EC2003F0F003C2F3031213432370BF
S1130EC010BD00BFFA13000000FF0FE0024BD3F87F
S1130ED0FC00000E704700BF0081E00F024BD3F806
S1130EE0FC00C0F3074070470081E00FF8B50746E7
S1130EF00C461D4616464AB94FF4A171314800F01C
S1130F008EF924B1402D08D1062327E019B92E48C3
S1130F10FFF78AFD0446402D42D0402D09D87DB10B
S1130F20202D17D040F28911BDE8F840254800F083
S1130F3076B9602DF6D1B6EB940F3CD804230DE0BE
S1130F40B6EB141F04D94FF4BA711E4800F067F9C8
S1130F50102303E0B6EBD40F1CD808235E437308B8
S1130F6003EB8403B3FBF6F3184E043BB6EB831F89
S1130F704FEA831404D24FF4D071124800F04FF9B1
S1130F803B68344023F060033B603B681D433D6095
S1130F907C61F8BD40F279110A4800F040F9DCE7C1
S1130FA00623B4FBF3F3B342AED24FF4BF7105484A
S1130FB000F035F9A8E740F28311024800F02FF958
S1130FC0BCE700BF2C14000040810400C0FF1F00D8
S1130FD010B51C4B0446984214D003F58063984224
S1130FE010D003F5806398420CD003F5C0539842A7
S1130FF008D003F58063984204D040F2424112487D
S113100000F00DF940F6AA6341F20502E360002303
S11310102360626041F6F972A3606361E364A264D1
S1131020084A6365944202D12365A36510BDA36594
S1131030064B9C4203D003F580639C42F6D1002307
S1131040E365F3E700C000402C14000000C4004036
S113105038B5224B044698420D4614D003F58063FC
S1131060984210D003F5806398420CD003F5C05326
S1131070984208D003F58063984204D040F2FD21E1
S1131080174800F0CCF82046FFF7A2FFAB7C1BB159
S1131090236843F080432360EB7C1BB12B7D43F03A
S11310A01003A3652A8A6B7B20461343EA89134302
S11310B063602B7BD5E90112FFF718FF6B7D1BB131
S11310C0236843F480332360AB7D1BB1236843F46E
S11310D0004323602B78E36038BD00BF00C00040AC
S11310E02C14000007B5064B18681B79009068465D
S11310F08DF80430FFF726FE002003B05DF804FBF2
S11311005D14000007B5084B186801900748FFF705
S1131110F5F901A8FFF752FD3220FFF7B3FD0020D7
S113112003B05DF804FB00BF62140000006CDC0235
S113113010B56FF00403A0210A480B4C13F0800F84
S113114003F1010207D12344272A83F8001313462D
S1131150F4D1002010BD03F00F03043B03441976BF
S11311601346EBE700ED00E000E100E008B5064BB4
S1131170044613B10021AFF30080044B1B6803B194
S11311809847204600F04CF800000000381000207A
S113119070B500260C4D0D4C641BA410A64209D159
S11311A000F08EF800260A4D0A4C641BA410A642D7
S11311B005D170BD55F8043B98470136EEE755F864
S11311C0043B98470136F2E710100020101000206D
S11311D010100020141000207047704708B500F06C
S11311E04CF8FFF7F9FFFEF7FDFF00F053F8FFF7A7
S11311F0F4FFFFF755F8F8E77047704700F006B8BA
S11312007047704770477047704770470F207047AA
S1131210FEE74FF4004070474FF47A707047FEE7E2
S1131220FEE7EFF3108072B6704700B962B67047FC
S113123070B5054614460E46FFF7F3FF2B685C4075
S113124034405C402C60BDE87040FFF7EEBF03699A
S11312505B06FCD54163704713B54FF4407300241B
S113126001A8ADF804308DF80640FFF7CDFC32201C
S1131270FFF702FD204602B010BD08B5FFF74AF89B
S1131280FFF7BBFFFFF7BAFFFFF7BAFFBDE808405F
S1131290FFF7B7BF08B5FFF7B5FFFFF7B4FFFFF7D8
S11312A0B3FFBDE80840FFF7B0BF034602449342D2
S11312B000D1704703F8011BF9E7000000000000AB
S11312C0F8B500BFF8BC08BC9E467047F8B500BF2F
S11312D0F8BC08BC9E4670470000000000000000F7
S11312E000000000000000000000000000000000FA
S11312F000000000000000000000000000000000EA
S1131300050000000000000000C20100000500000C
S113131000100000000000002E2E2F6765636B6F25
S11313205F73646B5F342E342E342F706C6174667B
S11313306F726D2F656D6C69622F7372632F656DAB
S11313405F636D752E6300000002800008000200D8
S113135020000001400004000100100009070301FF
S1131360052F55736572732F67657267656C7974A1
S1131370616D6173792F446F63756D656E74732F3E
S113138062737A665F68617A692F736E616B652F29
S11313906765636B6F5F73646B5F342E342E342F19
S11313A0706C6174666F726D2F656D6C69622F6904
S11313B06E632F656D5F6770696F2E68002E2E2F28
S11313C06765636B6F5F73646B5F342E342E342FE9
S11313D0706C6174666F726D2F656D6C69622F73CA
S11313E072632F656D5F6770696F2E630000FFFF86
S11313F0FFFFFFFFFFFFFFFFFF1F2E2E2F67656319
S11314006B6F5F73646B5F342E342E342F706C619A
S113141074666F726D2F656D6C69622F7372632FC2
S1131420656D5F73797374656D2E63002E2E2F675F
S113143065636B6F5F73646B5F342E342E342F706F
S11314406C6174666F726D2F656D6C69622F737257
S1131450632F656D5F75736172742E630000000005
S10B1460010103030000000078
S10B146800EDFF7F010000000C
S10F14707C1400000010002006000000A6
S113147C809FD50000800000006CDC02FFFFFFFFA2
S10B148C450100001D010000F0
S90303A158
